{
  "_format": "hh-sol-artifact-1",
  "contractName": "FHEBallot",
  "sourceName": "src/FHEBallot.sol",
  "abi": [
    {
      "inputs": [],
      "stateMutability": "nonpayable",
      "type": "constructor"
    },
    {
      "inputs": [],
      "name": "DecryptionNotAuthorized",
      "type": "error"
    },
    {
      "inputs": [],
      "name": "EnforcedPause",
      "type": "error"
    },
    {
      "inputs": [],
      "name": "ExpectedPause",
      "type": "error"
    },
    {
      "inputs": [
        {
          "internalType": "string",
          "name": "reason",
          "type": "string"
        }
      ],
      "name": "FHEOperationFailed",
      "type": "error"
    },
    {
      "inputs": [],
      "name": "InvalidEncryptedValue",
      "type": "error"
    },
    {
      "inputs": [],
      "name": "InvalidProof",
      "type": "error"
    },
    {
      "inputs": [],
      "name": "InvalidPublicKey",
      "type": "error"
    },
    {
      "inputs": [],
      "name": "InvalidTimeWindow",
      "type": "error"
    },
    {
      "inputs": [
        {
          "internalType": "address",
          "name": "owner",
          "type": "address"
        }
      ],
      "name": "OwnableInvalidOwner",
      "type": "error"
    },
    {
      "inputs": [
        {
          "internalType": "address",
          "name": "account",
          "type": "address"
        }
      ],
      "name": "OwnableUnauthorizedAccount",
      "type": "error"
    },
    {
      "inputs": [],
      "name": "ReentrancyGuardReentrantCall",
      "type": "error"
    },
    {
      "anonymous": false,
      "inputs": [
        {
          "indexed": false,
          "internalType": "string",
          "name": "operation",
          "type": "string"
        },
        {
          "indexed": false,
          "internalType": "uint256",
          "name": "gasUsed",
          "type": "uint256"
        }
      ],
      "name": "FHEOperationExecuted",
      "type": "event"
    },
    {
      "anonymous": false,
      "inputs": [
        {
          "indexed": true,
          "internalType": "address",
          "name": "previousOwner",
          "type": "address"
        },
        {
          "indexed": true,
          "internalType": "address",
          "name": "newOwner",
          "type": "address"
        }
      ],
      "name": "OwnershipTransferred",
      "type": "event"
    },
    {
      "anonymous": false,
      "inputs": [
        {
          "indexed": false,
          "internalType": "address",
          "name": "account",
          "type": "address"
        }
      ],
      "name": "Paused",
      "type": "event"
    },
    {
      "anonymous": false,
      "inputs": [
        {
          "indexed": true,
          "internalType": "bytes32",
          "name": "proofHash",
          "type": "bytes32"
        },
        {
          "indexed": false,
          "internalType": "bool",
          "name": "valid",
          "type": "bool"
        }
      ],
      "name": "ProofVerified",
      "type": "event"
    },
    {
      "anonymous": false,
      "inputs": [
        {
          "indexed": true,
          "internalType": "address",
          "name": "user",
          "type": "address"
        },
        {
          "indexed": false,
          "internalType": "bytes32",
          "name": "publicKey",
          "type": "bytes32"
        }
      ],
      "name": "PublicKeyRegistered",
      "type": "event"
    },
    {
      "anonymous": false,
      "inputs": [
        {
          "indexed": true,
          "internalType": "uint256",
          "name": "votingId",
          "type": "uint256"
        },
        {
          "indexed": false,
          "internalType": "uint256",
          "name": "totalVotes",
          "type": "uint256"
        },
        {
          "indexed": false,
          "internalType": "uint256",
          "name": "quorum",
          "type": "uint256"
        }
      ],
      "name": "QuorumReached",
      "type": "event"
    },
    {
      "anonymous": false,
      "inputs": [
        {
          "indexed": true,
          "internalType": "uint256",
          "name": "votingId",
          "type": "uint256"
        },
        {
          "indexed": false,
          "internalType": "uint256[]",
          "name": "results",
          "type": "uint256[]"
        },
        {
          "indexed": false,
          "internalType": "uint256",
          "name": "totalVotes",
          "type": "uint256"
        }
      ],
      "name": "ResultsDecrypted",
      "type": "event"
    },
    {
      "anonymous": false,
      "inputs": [
        {
          "indexed": false,
          "internalType": "address",
          "name": "account",
          "type": "address"
        }
      ],
      "name": "Unpaused",
      "type": "event"
    },
    {
      "anonymous": false,
      "inputs": [
        {
          "indexed": true,
          "internalType": "uint256",
          "name": "votingId",
          "type": "uint256"
        },
        {
          "indexed": true,
          "internalType": "address",
          "name": "voter",
          "type": "address"
        },
        {
          "indexed": false,
          "internalType": "uint256",
          "name": "timestamp",
          "type": "uint256"
        }
      ],
      "name": "VoteCast",
      "type": "event"
    },
    {
      "anonymous": false,
      "inputs": [
        {
          "indexed": true,
          "internalType": "uint256",
          "name": "votingId",
          "type": "uint256"
        },
        {
          "indexed": true,
          "internalType": "address",
          "name": "voter",
          "type": "address"
        },
        {
          "indexed": false,
          "internalType": "uint256",
          "name": "votingPower",
          "type": "uint256"
        }
      ],
      "name": "VoterWhitelisted",
      "type": "event"
    },
    {
      "anonymous": false,
      "inputs": [
        {
          "indexed": true,
          "internalType": "uint256",
          "name": "votingId",
          "type": "uint256"
        },
        {
          "indexed": false,
          "internalType": "string",
          "name": "name",
          "type": "string"
        },
        {
          "indexed": false,
          "internalType": "enum IFHEVoting.VoteType",
          "name": "voteType",
          "type": "uint8"
        },
        {
          "indexed": false,
          "internalType": "uint256",
          "name": "startTime",
          "type": "uint256"
        },
        {
          "indexed": false,
          "internalType": "uint256",
          "name": "endTime",
          "type": "uint256"
        }
      ],
      "name": "VotingCreated",
      "type": "event"
    },
    {
      "anonymous": false,
      "inputs": [
        {
          "indexed": true,
          "internalType": "uint256",
          "name": "votingId",
          "type": "uint256"
        },
        {
          "indexed": false,
          "internalType": "enum IFHEVoting.VotingStatus",
          "name": "oldStatus",
          "type": "uint8"
        },
        {
          "indexed": false,
          "internalType": "enum IFHEVoting.VotingStatus",
          "name": "newStatus",
          "type": "uint8"
        }
      ],
      "name": "VotingStatusChanged",
      "type": "event"
    },
    {
      "inputs": [],
      "name": "MAX_OPTIONS",
      "outputs": [
        {
          "internalType": "uint256",
          "name": "",
          "type": "uint256"
        }
      ],
      "stateMutability": "view",
      "type": "function"
    },
    {
      "inputs": [],
      "name": "MAX_VOTERS",
      "outputs": [
        {
          "internalType": "uint256",
          "name": "",
          "type": "uint256"
        }
      ],
      "stateMutability": "view",
      "type": "function"
    },
    {
      "inputs": [],
      "name": "MAX_VOTING_DURATION",
      "outputs": [
        {
          "internalType": "uint256",
          "name": "",
          "type": "uint256"
        }
      ],
      "stateMutability": "view",
      "type": "function"
    },
    {
      "inputs": [],
      "name": "MIN_VOTING_DURATION",
      "outputs": [
        {
          "internalType": "uint256",
          "name": "",
          "type": "uint256"
        }
      ],
      "stateMutability": "view",
      "type": "function"
    },
    {
      "inputs": [
        {
          "internalType": "uint256",
          "name": "votingId",
          "type": "uint256"
        },
        {
          "internalType": "externalEuint32[]",
          "name": "encryptedVotes",
          "type": "bytes32[]"
        },
        {
          "internalType": "uint256[]",
          "name": "credits",
          "type": "uint256[]"
        },
        {
          "internalType": "bytes",
          "name": "proof",
          "type": "bytes"
        }
      ],
      "name": "castQuadraticVote",
      "outputs": [],
      "stateMutability": "nonpayable",
      "type": "function"
    },
    {
      "inputs": [
        {
          "internalType": "uint256",
          "name": "votingId",
          "type": "uint256"
        },
        {
          "internalType": "externalEuint32",
          "name": "encryptedVote",
          "type": "bytes32"
        },
        {
          "internalType": "bytes",
          "name": "proof",
          "type": "bytes"
        }
      ],
      "name": "castVote",
      "outputs": [],
      "stateMutability": "nonpayable",
      "type": "function"
    },
    {
      "inputs": [
        {
          "internalType": "uint256",
          "name": "votingId",
          "type": "uint256"
        },
        {
          "internalType": "externalEuint32",
          "name": "encryptedVote",
          "type": "bytes32"
        },
        {
          "internalType": "uint256",
          "name": "weight",
          "type": "uint256"
        },
        {
          "internalType": "bytes",
          "name": "proof",
          "type": "bytes"
        }
      ],
      "name": "castWeightedVote",
      "outputs": [],
      "stateMutability": "nonpayable",
      "type": "function"
    },
    {
      "inputs": [
        {
          "components": [
            {
              "internalType": "string",
              "name": "name",
              "type": "string"
            },
            {
              "internalType": "string",
              "name": "description",
              "type": "string"
            },
            {
              "internalType": "enum IFHEVoting.VoteType",
              "name": "voteType",
              "type": "uint8"
            },
            {
              "internalType": "uint256",
              "name": "startTime",
              "type": "uint256"
            },
            {
              "internalType": "uint256",
              "name": "endTime",
              "type": "uint256"
            },
            {
              "internalType": "uint256",
              "name": "quorum",
              "type": "uint256"
            },
            {
              "internalType": "bool",
              "name": "whitelistEnabled",
              "type": "bool"
            },
            {
              "internalType": "uint256",
              "name": "maxVotersCount",
              "type": "uint256"
            }
          ],
          "internalType": "struct IFHEVoting.VotingConfig",
          "name": "config",
          "type": "tuple"
        },
        {
          "internalType": "string[]",
          "name": "optionNames",
          "type": "string[]"
        },
        {
          "internalType": "string[]",
          "name": "optionDescriptions",
          "type": "string[]"
        }
      ],
      "name": "createVoting",
      "outputs": [
        {
          "internalType": "uint256",
          "name": "votingId",
          "type": "uint256"
        }
      ],
      "stateMutability": "nonpayable",
      "type": "function"
    },
    {
      "inputs": [
        {
          "internalType": "uint256",
          "name": "",
          "type": "uint256"
        },
        {
          "internalType": "uint256",
          "name": "",
          "type": "uint256"
        }
      ],
      "name": "decryptedResults",
      "outputs": [
        {
          "internalType": "uint256",
          "name": "",
          "type": "uint256"
        }
      ],
      "stateMutability": "view",
      "type": "function"
    },
    {
      "inputs": [
        {
          "internalType": "uint256",
          "name": "",
          "type": "uint256"
        }
      ],
      "name": "decryptionRequestId",
      "outputs": [
        {
          "internalType": "uint256",
          "name": "",
          "type": "uint256"
        }
      ],
      "stateMutability": "view",
      "type": "function"
    },
    {
      "inputs": [],
      "name": "emergencyPause",
      "outputs": [],
      "stateMutability": "nonpayable",
      "type": "function"
    },
    {
      "inputs": [],
      "name": "emergencyUnpause",
      "outputs": [],
      "stateMutability": "nonpayable",
      "type": "function"
    },
    {
      "inputs": [
        {
          "internalType": "uint256",
          "name": "",
          "type": "uint256"
        }
      ],
      "name": "encryptedTotalVotes",
      "outputs": [
        {
          "internalType": "euint32",
          "name": "",
          "type": "bytes32"
        }
      ],
      "stateMutability": "view",
      "type": "function"
    },
    {
      "inputs": [
        {
          "internalType": "uint256",
          "name": "votingId",
          "type": "uint256"
        }
      ],
      "name": "endVoting",
      "outputs": [],
      "stateMutability": "nonpayable",
      "type": "function"
    },
    {
      "inputs": [
        {
          "internalType": "uint256",
          "name": "votingId",
          "type": "uint256"
        }
      ],
      "name": "getDecryptedResults",
      "outputs": [
        {
          "internalType": "uint256[]",
          "name": "",
          "type": "uint256[]"
        }
      ],
      "stateMutability": "view",
      "type": "function"
    },
    {
      "inputs": [
        {
          "internalType": "uint256",
          "name": "votingId",
          "type": "uint256"
        }
      ],
      "name": "getTotalVoters",
      "outputs": [
        {
          "internalType": "uint256",
          "name": "",
          "type": "uint256"
        }
      ],
      "stateMutability": "view",
      "type": "function"
    },
    {
      "inputs": [
        {
          "internalType": "uint256",
          "name": "votingId",
          "type": "uint256"
        }
      ],
      "name": "getTotalVotes",
      "outputs": [
        {
          "internalType": "uint256",
          "name": "",
          "type": "uint256"
        }
      ],
      "stateMutability": "view",
      "type": "function"
    },
    {
      "inputs": [
        {
          "internalType": "uint256",
          "name": "votingId",
          "type": "uint256"
        },
        {
          "internalType": "address",
          "name": "voter",
          "type": "address"
        }
      ],
      "name": "getVoterInfo",
      "outputs": [
        {
          "components": [
            {
              "internalType": "bool",
              "name": "hasVoted",
              "type": "bool"
            },
            {
              "internalType": "bool",
              "name": "isWhitelisted",
              "type": "bool"
            },
            {
              "internalType": "uint256",
              "name": "votingPower",
              "type": "uint256"
            },
            {
              "internalType": "euint32",
              "name": "encryptedChoice",
              "type": "bytes32"
            },
            {
              "internalType": "uint256",
              "name": "voteTimestamp",
              "type": "uint256"
            }
          ],
          "internalType": "struct IFHEVoting.VoterInfo",
          "name": "",
          "type": "tuple"
        }
      ],
      "stateMutability": "view",
      "type": "function"
    },
    {
      "inputs": [
        {
          "internalType": "uint256",
          "name": "votingId",
          "type": "uint256"
        }
      ],
      "name": "getVotingConfig",
      "outputs": [
        {
          "components": [
            {
              "internalType": "string",
              "name": "name",
              "type": "string"
            },
            {
              "internalType": "string",
              "name": "description",
              "type": "string"
            },
            {
              "internalType": "enum IFHEVoting.VoteType",
              "name": "voteType",
              "type": "uint8"
            },
            {
              "internalType": "uint256",
              "name": "startTime",
              "type": "uint256"
            },
            {
              "internalType": "uint256",
              "name": "endTime",
              "type": "uint256"
            },
            {
              "internalType": "uint256",
              "name": "quorum",
              "type": "uint256"
            },
            {
              "internalType": "bool",
              "name": "whitelistEnabled",
              "type": "bool"
            },
            {
              "internalType": "uint256",
              "name": "maxVotersCount",
              "type": "uint256"
            }
          ],
          "internalType": "struct IFHEVoting.VotingConfig",
          "name": "",
          "type": "tuple"
        }
      ],
      "stateMutability": "view",
      "type": "function"
    },
    {
      "inputs": [
        {
          "internalType": "uint256",
          "name": "votingId",
          "type": "uint256"
        }
      ],
      "name": "getVotingOptions",
      "outputs": [
        {
          "internalType": "string[]",
          "name": "",
          "type": "string[]"
        }
      ],
      "stateMutability": "view",
      "type": "function"
    },
    {
      "inputs": [
        {
          "internalType": "uint256",
          "name": "votingId",
          "type": "uint256"
        }
      ],
      "name": "getVotingStatus",
      "outputs": [
        {
          "internalType": "enum IFHEVoting.VotingStatus",
          "name": "",
          "type": "uint8"
        }
      ],
      "stateMutability": "view",
      "type": "function"
    },
    {
      "inputs": [
        {
          "internalType": "uint256",
          "name": "votingId",
          "type": "uint256"
        }
      ],
      "name": "getWinningOption",
      "outputs": [
        {
          "internalType": "uint256",
          "name": "",
          "type": "uint256"
        }
      ],
      "stateMutability": "view",
      "type": "function"
    },
    {
      "inputs": [
        {
          "internalType": "uint256",
          "name": "votingId",
          "type": "uint256"
        },
        {
          "internalType": "address",
          "name": "user",
          "type": "address"
        }
      ],
      "name": "hasVoted",
      "outputs": [
        {
          "internalType": "bool",
          "name": "",
          "type": "bool"
        }
      ],
      "stateMutability": "view",
      "type": "function"
    },
    {
      "inputs": [
        {
          "internalType": "uint256",
          "name": "votingId",
          "type": "uint256"
        }
      ],
      "name": "isQuorumReached",
      "outputs": [
        {
          "internalType": "bool",
          "name": "",
          "type": "bool"
        }
      ],
      "stateMutability": "view",
      "type": "function"
    },
    {
      "inputs": [],
      "name": "owner",
      "outputs": [
        {
          "internalType": "address",
          "name": "",
          "type": "address"
        }
      ],
      "stateMutability": "view",
      "type": "function"
    },
    {
      "inputs": [],
      "name": "paused",
      "outputs": [
        {
          "internalType": "bool",
          "name": "",
          "type": "bool"
        }
      ],
      "stateMutability": "view",
      "type": "function"
    },
    {
      "inputs": [],
      "name": "protocolId",
      "outputs": [
        {
          "internalType": "uint256",
          "name": "",
          "type": "uint256"
        }
      ],
      "stateMutability": "pure",
      "type": "function"
    },
    {
      "inputs": [
        {
          "internalType": "uint256",
          "name": "votingId",
          "type": "uint256"
        },
        {
          "internalType": "address",
          "name": "voter",
          "type": "address"
        },
        {
          "internalType": "bytes32",
          "name": "publicKey",
          "type": "bytes32"
        }
      ],
      "name": "reencryptVote",
      "outputs": [
        {
          "internalType": "bytes",
          "name": "",
          "type": "bytes"
        }
      ],
      "stateMutability": "view",
      "type": "function"
    },
    {
      "inputs": [
        {
          "internalType": "bytes32",
          "name": "publicKey",
          "type": "bytes32"
        }
      ],
      "name": "registerPublicKey",
      "outputs": [],
      "stateMutability": "nonpayable",
      "type": "function"
    },
    {
      "inputs": [],
      "name": "renounceOwnership",
      "outputs": [],
      "stateMutability": "nonpayable",
      "type": "function"
    },
    {
      "inputs": [
        {
          "internalType": "uint256",
          "name": "votingId",
          "type": "uint256"
        }
      ],
      "name": "requestDecryption",
      "outputs": [],
      "stateMutability": "nonpayable",
      "type": "function"
    },
    {
      "inputs": [
        {
          "internalType": "uint256",
          "name": "",
          "type": "uint256"
        }
      ],
      "name": "requestIdToVotingId",
      "outputs": [
        {
          "internalType": "uint256",
          "name": "",
          "type": "uint256"
        }
      ],
      "stateMutability": "view",
      "type": "function"
    },
    {
      "inputs": [
        {
          "internalType": "uint256",
          "name": "",
          "type": "uint256"
        }
      ],
      "name": "resultsDecrypted",
      "outputs": [
        {
          "internalType": "bool",
          "name": "",
          "type": "bool"
        }
      ],
      "stateMutability": "view",
      "type": "function"
    },
    {
      "inputs": [
        {
          "internalType": "uint256",
          "name": "votingId",
          "type": "uint256"
        }
      ],
      "name": "startVoting",
      "outputs": [],
      "stateMutability": "nonpayable",
      "type": "function"
    },
    {
      "inputs": [
        {
          "internalType": "uint256",
          "name": "",
          "type": "uint256"
        }
      ],
      "name": "totalVoters",
      "outputs": [
        {
          "internalType": "uint256",
          "name": "",
          "type": "uint256"
        }
      ],
      "stateMutability": "view",
      "type": "function"
    },
    {
      "inputs": [
        {
          "internalType": "address",
          "name": "newOwner",
          "type": "address"
        }
      ],
      "name": "transferOwnership",
      "outputs": [],
      "stateMutability": "nonpayable",
      "type": "function"
    },
    {
      "inputs": [
        {
          "internalType": "address",
          "name": "",
          "type": "address"
        }
      ],
      "name": "userPublicKeys",
      "outputs": [
        {
          "internalType": "bytes32",
          "name": "",
          "type": "bytes32"
        }
      ],
      "stateMutability": "view",
      "type": "function"
    },
    {
      "inputs": [
        {
          "internalType": "bytes32",
          "name": "",
          "type": "bytes32"
        }
      ],
      "name": "validProofs",
      "outputs": [
        {
          "internalType": "bool",
          "name": "",
          "type": "bool"
        }
      ],
      "stateMutability": "view",
      "type": "function"
    },
    {
      "inputs": [
        {
          "internalType": "uint256",
          "name": "votingId",
          "type": "uint256"
        },
        {
          "internalType": "address",
          "name": "voter",
          "type": "address"
        },
        {
          "internalType": "bytes",
          "name": "proof",
          "type": "bytes"
        }
      ],
      "name": "verifyVoteIntegrity",
      "outputs": [
        {
          "internalType": "bool",
          "name": "",
          "type": "bool"
        }
      ],
      "stateMutability": "view",
      "type": "function"
    },
    {
      "inputs": [
        {
          "internalType": "uint256",
          "name": "",
          "type": "uint256"
        },
        {
          "internalType": "address",
          "name": "",
          "type": "address"
        }
      ],
      "name": "voterInfo",
      "outputs": [
        {
          "internalType": "bool",
          "name": "hasVoted",
          "type": "bool"
        },
        {
          "internalType": "bool",
          "name": "isWhitelisted",
          "type": "bool"
        },
        {
          "internalType": "uint256",
          "name": "votingPower",
          "type": "uint256"
        },
        {
          "internalType": "euint32",
          "name": "encryptedChoice",
          "type": "bytes32"
        },
        {
          "internalType": "uint256",
          "name": "voteTimestamp",
          "type": "uint256"
        }
      ],
      "stateMutability": "view",
      "type": "function"
    },
    {
      "inputs": [
        {
          "internalType": "uint256",
          "name": "",
          "type": "uint256"
        }
      ],
      "name": "votingConfigs",
      "outputs": [
        {
          "internalType": "string",
          "name": "name",
          "type": "string"
        },
        {
          "internalType": "string",
          "name": "description",
          "type": "string"
        },
        {
          "internalType": "enum IFHEVoting.VoteType",
          "name": "voteType",
          "type": "uint8"
        },
        {
          "internalType": "uint256",
          "name": "startTime",
          "type": "uint256"
        },
        {
          "internalType": "uint256",
          "name": "endTime",
          "type": "uint256"
        },
        {
          "internalType": "uint256",
          "name": "quorum",
          "type": "uint256"
        },
        {
          "internalType": "bool",
          "name": "whitelistEnabled",
          "type": "bool"
        },
        {
          "internalType": "uint256",
          "name": "maxVotersCount",
          "type": "uint256"
        }
      ],
      "stateMutability": "view",
      "type": "function"
    },
    {
      "inputs": [],
      "name": "votingCounter",
      "outputs": [
        {
          "internalType": "uint256",
          "name": "",
          "type": "uint256"
        }
      ],
      "stateMutability": "view",
      "type": "function"
    },
    {
      "inputs": [
        {
          "internalType": "uint256",
          "name": "",
          "type": "uint256"
        }
      ],
      "name": "votingCreator",
      "outputs": [
        {
          "internalType": "address",
          "name": "",
          "type": "address"
        }
      ],
      "stateMutability": "view",
      "type": "function"
    },
    {
      "inputs": [
        {
          "internalType": "uint256",
          "name": "",
          "type": "uint256"
        },
        {
          "internalType": "uint256",
          "name": "",
          "type": "uint256"
        }
      ],
      "name": "votingOptions",
      "outputs": [
        {
          "internalType": "string",
          "name": "name",
          "type": "string"
        },
        {
          "internalType": "string",
          "name": "description",
          "type": "string"
        },
        {
          "internalType": "euint32",
          "name": "encryptedVoteCount",
          "type": "bytes32"
        },
        {
          "internalType": "bool",
          "name": "active",
          "type": "bool"
        }
      ],
      "stateMutability": "view",
      "type": "function"
    },
    {
      "inputs": [
        {
          "internalType": "uint256",
          "name": "",
          "type": "uint256"
        }
      ],
      "name": "votingStatus",
      "outputs": [
        {
          "internalType": "enum IFHEVoting.VotingStatus",
          "name": "",
          "type": "uint8"
        }
      ],
      "stateMutability": "view",
      "type": "function"
    },
    {
      "inputs": [
        {
          "internalType": "uint256",
          "name": "",
          "type": "uint256"
        },
        {
          "internalType": "address",
          "name": "",
          "type": "address"
        }
      ],
      "name": "whitelist",
      "outputs": [
        {
          "internalType": "bool",
          "name": "",
          "type": "bool"
        }
      ],
      "stateMutability": "view",
      "type": "function"
    },
    {
      "inputs": [
        {
          "internalType": "uint256",
          "name": "",
          "type": "uint256"
        }
      ],
      "name": "whitelistCount",
      "outputs": [
        {
          "internalType": "uint256",
          "name": "",
          "type": "uint256"
        }
      ],
      "stateMutability": "view",
      "type": "function"
    },
    {
      "inputs": [
        {
          "internalType": "uint256",
          "name": "votingId",
          "type": "uint256"
        },
        {
          "internalType": "address[]",
          "name": "voters",
          "type": "address[]"
        },
        {
          "internalType": "uint256[]",
          "name": "votingPowers",
          "type": "uint256[]"
        }
      ],
      "name": "whitelistVoters",
      "outputs": [],
      "stateMutability": "nonpayable",
      "type": "function"
    }
  ],
  "bytecode": "0x6080604052346101f55733156101e2575f8054336001600160a01b0319821681178355916001600160a01b03909116907f8be0079c531659141344cd1fd0a4f28419497f9722a3daafe3b4186f6b6457e09080a3600180555f60606100626101f9565b8281528260208201528260408201520152731364cbbf2cdf5032c47d8226a6f6fbd2afcdacac60606100926101f9565b73687820221192c5b662b25367f70076a37bc79b6c815273848b0066793bcc60346da1f49049357399b8d595602082015273a02cda4ca3a71d7c46997716f4283aa851c288126040820152015273687820221192c5b662b25367f70076a37bc79b6c60018060a01b03195f5160206135765f395f51905f525416175f5160206135765f395f51905f525573848b0066793bcc60346da1f49049357399b8d59560018060a01b03195f5160206135365f395f51905f525416175f5160206135365f395f51905f525573a02cda4ca3a71d7c46997716f4283aa851c2881260018060a01b03195f5160206135565f395f51905f525416175f5160206135565f395f51905f5255731364cbbf2cdf5032c47d8226a6f6fbd2afcdacac60018060a01b03195f5160206135165f395f51905f525416175f5160206135165f395f51905f52556040516132e9908161022d8239f35b631e4fbdf760e01b5f525f60045260245ffd5b5f80fd5b60405190608082016001600160401b0381118382101761021857604052565b634e487b7160e01b5f52604160045260245ffdfe6080806040526004361015610012575f80fd5b5f3560e01c908163070a85401461294c575080630da183d6146129315780630e13dd74146128ff5780631780fe20146128e25780631a79004b1461287d578063211476791461284b5780632ce35e11146124eb57806339774a381461279757806339b3e43c1461271f5780633ceed692146127035780633d2f5bda146125f757806341d14c221461253957806343859632146124f057806343d3a4c1146124eb578063498d91bf146124c15780634a4e3bd51461245b5780634b25bfce146124125780634cd1f470146123da57806351858e27146123815780635c975abb1461235f578063613e48ab14611ecd57806361c6dadb14611ea3578063649f89a514611d925780636aa8ba8414611d075780636b05f2ce14611cdd578063715018a614611c8657806382e891971461188f5780638589c7a5146113b5578063889376b8146111885780638da5cb5b146111615780638f633994146111325780639079991f146110f75780639096599014610a29578063a571b13214610970578063a6286870146108cc578063bfa87057146108a2578063d0a17a3714610756578063d33e327f14610660578063da1f12ab14610644578063dcc560b01461061a578063e172b700146105dc578063e2f631b5146105ad578063e4ee00a61461049c578063eaf1061c14610480578063eefe85e414610462578063f2fde38b146103dd578063f41714ed146103005763fbc759a11461022c575f80fd5b346102fc5760403660031901126102fc57610245612ad5565b5f6080604051610254816129b9565b82815282602082015282604082015282606082015201526004355f52600860205260405f209060018060a01b03165f5260205260a060405f20604051610299816129b9565b81549160ff831615159283835260ff602084019160081c1615158152600182015490604084019182526080600360028501549460608701958652015494019384526040519485525115156020850152516040840152516060830152516080820152f35b5f80fd5b346102fc5760603660031901126102fc5760043561031c612ad5565b906044356001600160401b0381116102fc576020926103426103ce923690600401612b01565b939091815f526008865260405f2060018060a01b0382165f52865261036d60ff60405f205416612f54565b815f526008865260405f2060018060a01b0382165f528652600360405f200154604051918783019384526bffffffffffffffffffffffff199060601b1660408301526054820152605481526103c36074826129f0565b519020923691612cfc565b82815191012014604051908152f35b346102fc5760203660031901126102fc576103f6612aeb565b6103fe612fa0565b6001600160a01b0316801561044f575f80546001600160a01b03198116831782556001600160a01b0316907f8be0079c531659141344cd1fd0a4f28419497f9722a3daafe3b4186f6b6457e09080a3005b631e4fbdf760e01b5f525f60045260245ffd5b346102fc575f3660031901126102fc5760206040516301e133808152f35b346102fc575f3660031901126102fc576020604051610e108152f35b346102fc5760203660031901126102fc57600435805f52600760205260405f20546104c681612d4f565b916104d460405193846129f0565b818352601f196104e383612d4f565b015f5b81811061059c5750505f5b82811061055f57836040518091602082016020835281518091526040830190602060408260051b8601019301915f905b82821061053057505050500390f35b9193600191939550602061054f8192603f198a82030186528851612ab1565b9601920192018594939192610521565b600190825f52600760205261058061057a8260405f20612b44565b50612a11565b61058a8287612f8c565b526105958186612f8c565b50016104f1565b8060606020809388010152016104e6565b346102fc5760203660031901126102fc576004355f52600c602052602060ff60405f2054166040519015158152f35b346102fc576105ea36612b2e565b905f52600b60205260405f2080548210156102fc5760209161060b91612ba1565b90549060031b1c604051908152f35b346102fc5760203660031901126102fc576004355f526012602052602060405f2054604051908152f35b346102fc575f3660031901126102fc5760206040516127118152f35b346102fc5760603660031901126102fc5760043561067c612ad5565b90805f52600860205260405f2060018060a01b0383165f526020526106a760ff60405f205416612f54565b6001600160a01b0382165f90815260036020526040902054604435900361071c575f52600860205260405f209060018060a01b03165f52602052610718600260405f200154604051906020820152602081526107046040826129f0565b604051918291602083526020830190612ab1565b0390f35b60405162461bcd60e51b8152602060048201526012602482015271496e76616c6964207075626c6963206b657960701b6044820152606490fd5b346102fc5760203660031901126102fc575f60e0604051610776816129d4565b60608152606060208201528260408201528260608201528260808201528260a08201528260c082015201526004355f52600660205261085a60405f20604051906107bf826129d4565b6107c881612a11565b82526107d660018201612a11565b6020830190815260ff6002830154169160408401926107f481612977565b835260038101546060850190815260048201546080860190815260058301549160a0870192835261086d600760ff6006870154169560c08a01961515875201549560e08901968752604051998a9960208b525161010060208c01526101208b0190612ab1565b9051898203601f190160408b0152612ab1565b955161087881612977565b60608801525160808701525160a08601525160c085015251151560e0840152516101008301520390f35b346102fc5760203660031901126102fc576004355f526010602052602060405f2054604051908152f35b346102fc5760203660031901126102fc57600435805f52600c6020526108f860ff60405f205416612bfa565b5f5f915f5b815f52600b60205260405f205481101561096557815f52600b602052826109278260405f20612ba1565b90549060031b1c1161093c575b6001016108fd565b92508091505f52600b6020526109558260405f20612ba1565b905460039190911b1c9082610934565b602084604051908152f35b346102fc5760803660031901126102fc576024356001600160401b0381116102fc576109a0903690600401612b71565b50506044356001600160401b0381116102fc576109c1903690600401612b71565b50506064356001600160401b0381116102fc576109e2903690600401612b01565b505060405162461bcd60e51b815260206004820152601f60248201527f55736520464845517561647261746963566f74696e6720636f6e7472616374006044820152606490fd5b346102fc5760603660031901126102fc576004356001600160401b0381116102fc578060040161010060031983360301126102fc576024356001600160401b0381116102fc57610a7d903690600401612b71565b92906044356001600160401b0381116102fc57610a9e903690600401612b71565b9390610aab858714612d7c565b600286106110b2576064861161107a576064840135956084850135938488101561106b57610e10610adc898761310d565b1061106b576301e13380610af0898761310d565b1161106b5742881061106b5760055496610b0988612d41565b600555875f52600660205260405f20610b228680612ec4565b906001600160401b038211610f0357610b4582610b3f8554612981565b85612ef6565b5f90601f831160011461100757610b7392915f9183610ffc575b50508160011b915f199060031b1c19161790565b81555b60018101610b8760248a0188612ec4565b906001600160401b038211610f0357610ba482610b3f8554612981565b5f90601f8311600114610f9857610bd192915f9183610f8d5750508160011b915f199060031b1c19161790565b90555b6044880135976002820160048a10156102fc57610bf08a612977565b60ff1981541660ff8b161790558a600383015587600483015560a4810135600583015560c481013580151581036102fc57600791610c3f60e492600686019060ff801983541691151516179055565b01359101555f888152600960209081526040808320805460ff19169055600e909152812080546001600160a01b031916331790555b838110610d0f57602089807fcee2e27fb2b9fca63e047dd7a5f313beb4a7be959bc9c74a8025c8928baccbe98d60a08d8d610cc38e610cb161311a565b885f52600d8b5260405f205580612ec4565b948592919360405196879560808752816080880152878701375f868587010152610cec81612977565b848b015260408401526060830152601f01601f19168101030190a2604051908152f35b885f52600760205260405f20610d26828686612f39565b610d3484868a959495612f39565b9190610d3e61311a565b926040519560808701908782106001600160401b03831117610f0357610d7594610d6c926040523691612cfc565b86523691612cfc565b60208401908152604084019182526060840192600184528054600160401b811015610f0357610da991600182018155612b44565b949094610f7a57518051906001600160401b038211610f0357610dd682610dd08854612981565b88612ef6565b602090601f8311600114610f1757610e0492915f9183610e8b5750508160011b915f199060031b1c19161790565b84555b51805160018501916001600160401b038211610f0357610e2b82610b3f8554612981565b602090601f8311600114610e965792610e6683610e85979460019a9997946003975f92610e8b5750508160011b915f199060031b1c19161790565b90555b51600284015551151591019060ff801983541691151516179055565b01610c74565b015190505f80610b5f565b90601f19831691845f52815f20925f5b818110610eeb575093600199989693600396938b9383610e859b9810610ed4575b505050811b019055610e69565b01515f1983891b60f8161c191690555f8080610ec7565b92936020600181928786015181550195019301610ea6565b634e487b7160e01b5f52604160045260245ffd5b90601f19831691875f52815f20925f5b818110610f625750908460019594939210610f4a575b505050811b018455610e07565b01515f1960f88460031b161c191690555f8080610f3d565b92936020600181928786015181550195019301610f27565b634e487b7160e01b5f525f60045260245ffd5b013590508e80610b5f565b601f19831691845f5260205f20925f5b818110610fe45750908460019594939210610fcb575b505050811b019055610bd4565b01355f19600384901b60f8161c191690558d8080610fbe565b91936020600181928787013581550195019201610fa8565b013590508d80610b5f565b601f19831691845f5260205f20925f5b818110611053575090846001959493921061103a575b505050811b018155610b76565b01355f19600384901b60f8161c191690558c808061102d565b91936020600181928787013581550195019201611017565b63b11cd48160e01b5f5260045ffd5b60405162461bcd60e51b815260206004820152601060248201526f546f6f206d616e79206f7074696f6e7360801b6044820152606490fd5b60405162461bcd60e51b815260206004820152601b60248201527f4174206c656173742032206f7074696f6e7320726571756972656400000000006044820152606490fd5b346102fc5760203660031901126102fc576020600435805f52600a825260405f2054905f5260068252600560405f2001541115604051908152f35b346102fc5760203660031901126102fc576020611150600435612de0565b6040519061115d81612977565b8152f35b346102fc575f3660031901126102fc575f546040516001600160a01b039091168152602090f35b346102fc5760603660031901126102fc576004356024356001600160401b0381116102fc576111bb903690600401612b71565b916044356001600160401b0381116102fc576111db903690600401612b71565b6111e6929192612fa0565b6111f36005548310612bb6565b6111fe818614612d7c565b815f52600960205260ff60405f20541661121781612977565b611377575f5b85811061122657005b600190835f52600f60205260405f20611248611243838a8a612dbc565b612dcc565b838060a01b03165f5260205260ff60405f20541615611268575b0161121d565b835f52600f60205260405f20611282611243838a8a612dbc565b838060a01b03165f5260205260405f208260ff19825416179055835f52600860205260405f206112b6611243838a8a612dbc565b838060a01b03165f5260205260405f2061010061ff00198254161790556112de818487612dbc565b35845f52600860205260405f206112f9611243848b8b612dbc565b848060a01b03165f526020528260405f200155835f52601060205260405f206113228154612d41565b9055611332611243828989612dbc565b847f0d8ffcf4aedeb82895eb7d47049fb5257a4f61b0c6819d6d31163b45228d43ab602061136185888b612dbc565b3593604051948552868060a01b031693a3611262565b60405162461bcd60e51b8152602060048201526016602482015275159bdd1a5b99c8185b1c9958591e481cdd185c9d195960521b6044820152606490fd5b346102fc5760603660031901126102fc576004356044356001600160401b0381116102fc5761149b6113ee6114a3923690600401612b01565b6113fb6005548610612bb6565b5f8581526006602052604090206003810154600490910154611427914210159081611884575b50612c3e565b845f52600960205260ff60405f20541661144081612977565b15611837575b845f52600660205260ff600660405f2001541661180d575b611466612fc6565b61146e612fe1565b5f8581526008602090815260408083203384529091529020546114949060ff1615612cc0565b3691612cfc565b602435613001565b815f52600f60205260405f2060018060a01b0333165f5260205260ff60405f2054166003604051916114d4836129b9565b60018352602083019015158152604083016001815260608401908582526080850192428452875f52600860205260405f2060018060a01b0333165f5260205261153060405f2096511515879060ff801983541691151516179055565b51855461ff00191690151560081b61ff0016178555516001850155516002840155519101555f8281526007602052604081205482159290915b82811061165c5784805f52600d60205261159160405f205461158b600161319b565b906131ef565b815f52600d60205260405f2055805f52600a60205260405f206115b48154612d41565b9055604051428152817f2acce567deca3aabf56327adbb4524bd5318936eaefa69e3a5208ffda0cfec0960203393a3805f52600a60205260405f2054815f526006602052600560405f200154111561160d575b60018055005b805f52600a6020527fb20da58627735347d6000915fe4c9d4e84ab94bd17ba266ba80162f4854790986040805f2054835f5260066020526005825f20015482519182526020820152a280611607565b8061166d63ffffffff86931661319b565b83926117fd575b80156117eb575b602090606460018060a01b035f5160206132745f395f51905f525416945f604051968794859363f77f3f1d60e01b8552600485015260248401528160448401525af19182156117ad575f926117b8575b5060206116d8600161319b565b60646116e261311a565b5f5160206132745f395f51905f5254604051637702dcff60e01b8152600481019790975260248701939093526044860152849182905f906001600160a01b03165af19182156117ad575f92611778575b50611758600192875f52600760205260026117508460405f20612b44565b5001546131ef565b865f526007602052600261176f8360405f20612b44565b50015501611569565b91506020823d82116117a5575b81611792602093836129f0565b810103126102fc57905190611758611732565b3d9150611785565b6040513d5f823e3d90fd5b9091506020813d82116117e3575b816117d3602093836129f0565b810103126102fc575190866116cb565b3d91506117c6565b5060206117f661311a565b905061167b565b915061180761311a565b91611674565b5f858152600f602090815260408083203384529091529020546118329060ff16612c82565b61145e565b5f8581526009602052604090819020805460ff198116600117909155815187925f5160206132945f395f51905f529290919060ff1661187581612977565b815260016020820152a2611446565b905042111587611421565b346102fc5760203660031901126102fc576004356118b06005548210612bb6565b805f526006602052600460405f200154421015611bf1575b805f526009602052600260ff60405f2054166118e381612977565b148015611bcf575b15611b9757805f52600c60205260ff60405f205416611b5e575f818152600e60205260409020546001600160a01b03163303611b2457805f52600760205260405f205461193781612d4f565b61194460405191826129f0565b81815261195082612d4f565b602082019190601f1901368337835f52600b60205260405f209051916001600160401b038311610f0357600160401b8311610f03578154838355808410611b08575b50905f5260205f205f5b838110611af45785855f5b818110611a9a575f838152600c60209081526040808320805460ff19166001179055600990915290208054849160ff9190911690805460ff19166003179055604051906119f381612977565b81525f5160206132945f395f51905f526040826003602086950152a2805f52600b60205260405f20604051906040820160408352815480915260608301915f5260205f20905f5b818110611a7057426020860152857f51de0405d9f7576ff254cf4434e45c3e7710b3a34f1c9d563e626b456a463d3986860387a2005b8254845260209093019260019283019201611a3a565b634e487b7160e01b5f52602160045260245ffd5b606481029080820460641481151715611ae057600191845f52600b602052611ac58260405f20612ba1565b819291549060031b91821b915f19901b1916179055016119a7565b634e487b7160e01b5f52601160045260245ffd5b60019060208451940193818401550161199c565b611b1e90835f528460205f209182019101612d66565b85611992565b60405162461bcd60e51b81526020600482015260126024820152712737ba103b37ba34b7339031b932b0ba37b960711b6044820152606490fd5b60405162461bcd60e51b8152602060048201526011602482015270105b1c9958591e48191958dc9e5c1d1959607a1b6044820152606490fd5b60405162461bcd60e51b815260206004820152601060248201526f159bdd1a5b99c81b9bdd08195b99195960821b6044820152606490fd5b50805f526009602052600360ff60405f205416611beb81612977565b146118eb565b805f526009602052600160ff60405f205416611c0c81612977565b148015611c66575b156118c8575f8181526009602052604090819020805460ff198116600217909155815183925f5160206132945f395f51905f529290919060ff16611c5781612977565b815260026020820152a26118c8565b50805f52600960205260ff60405f205416611c8081612977565b15611c14565b346102fc575f3660031901126102fc57611c9e612fa0565b5f80546001600160a01b0319811682556001600160a01b03167f8be0079c531659141344cd1fd0a4f28419497f9722a3daafe3b4186f6b6457e08280a3005b346102fc5760203660031901126102fc576004355f52600d602052602060405f2054604051908152f35b346102fc57611d1536612b2e565b905f52600760205260405f2080548210156102fc57611d7391611d3791612b44565b50611d4181612a11565b90611d4e60018201612a11565b611d8160ff600360028501549401541691604051958695608087526080870190612ab1565b908582036020870152612ab1565b916040840152151560608301520390f35b346102fc5760203660031901126102fc57600435611dae612fa0565b611dbb6005548210612bb6565b805f526009602052600160ff60405f205416611dd681612977565b03611e7157805f526006602052600460405f2001544210611e39575f818152600960205260409020805460ff1690805460ff1916600217905560405190611e1c81612977565b8152604081600260205f5160206132945f395f51905f52940152a2005b60405162461bcd60e51b815260206004820152601060248201526f151bdbc819585c9b1e481d1bc8195b9960821b6044820152606490fd5b60405162461bcd60e51b815260206004820152600a6024820152694e6f742061637469766560b01b6044820152606490fd5b346102fc5760203660031901126102fc576004355f526011602052602060405f2054604051908152f35b346102fc5760803660031901126102fc576044356004356064356001600160401b0381116102fc57611f03903690600401612b01565b611f106005548410612bb6565b5f8381526006602052604090206003810154600490910154611f3b9142101590816123545750612c3e565b825f52600960205260ff60405f205416611f5481612977565b15612307575b825f52600660205260ff600660405f200154166122dd575b611f7a612fc6565b611f82612fe1565b825f526006602052600260ff8160405f20015416611f9f81612977565b036122a2575f838152600860209081526040808320338452909152902054611fca9060ff1615612cc0565b8315158061227d575b1561224757611fe79161149b913691612cfc565b5f8281526008602090815260408083203384528252808320805460ff191660011781556002810185905542600390910155848352600790915281205482159463ffffffff169290915b8281106120aa578461205285825f52600d60205261158b60405f20549161319b565b815f52600d60205260405f2055805f52600a60205260405f206120758154612d41565b9055604051904282527f2acce567deca3aabf56327adbb4524bd5318936eaefa69e3a5208ffda0cfec0960203393a360018055005b806120bb63ffffffff88931661319b565b8392612237575b8015612225575b602090606460018060a01b035f5160206132745f395f51905f525416945f604051968794859363f77f3f1d60e01b8552600485015260248401528160448401525af19182156117ad575f926121f2575b5060206121258661319b565b606461212f61311a565b5f5160206132745f395f51905f5254604051637702dcff60e01b8152600481019790975260248701939093526044860152849182905f906001600160a01b03165af19182156117ad575f926121bd575b5061219d600192875f52600760205260026117508460405f20612b44565b865f52600760205260026121b48360405f20612b44565b50015501612030565b91506020823d82116121ea575b816121d7602093836129f0565b810103126102fc5790519061219d61217f565b3d91506121ca565b9091506020813d821161221d575b8161220d602093836129f0565b810103126102fc57519087612119565b3d9150612200565b50602061223061311a565b90506120c9565b915061224161311a565b916120c2565b60405162461bcd60e51b815260206004820152600e60248201526d125b9d985b1a59081dd95a59da1d60921b6044820152606490fd5b505f838152600860209081526040808320338452909152902060010154841115611fd3565b60405162461bcd60e51b81526020600482015260136024820152724e6f7420776569676874656420766f74696e6760681b6044820152606490fd5b5f838152600f602090815260408083203384529091529020546123029060ff16612c82565b611f72565b5f8381526009602052604090819020805460ff198116600117909155815185925f5160206132945f395f51905f529290919060ff1661234581612977565b815260016020820152a2611f5a565b905042111586611421565b346102fc575f3660031901126102fc57602060ff600254166040519015158152f35b346102fc575f3660031901126102fc57612399612fa0565b6123a1612fc6565b600160ff1960025416176002557f62e78cea01bee320cd4e420270b5ea74000d11b0c9f74754ebdbfc544b05a2586020604051338152a1005b346102fc5760203660031901126102fc576001600160a01b036123fb612aeb565b165f526003602052602060405f2054604051908152f35b346102fc5760403660031901126102fc5761242b612ad5565b6004355f52600f60205260405f209060018060a01b03165f52602052602060ff60405f2054166040519015158152f35b346102fc575f3660031901126102fc57612473612fa0565b60025460ff8116156124b25760ff19166002557f5db9ee0a495bf2e6ff9c91a7834c1ba4fdd244a5e8aa4e537bd38aeae4b073aa6020604051338152a1005b638dfc202b60e01b5f5260045ffd5b346102fc5760203660031901126102fc576004355f52600a602052602060405f2054604051908152f35b6124c1565b346102fc5760403660031901126102fc57612509612ad5565b6004355f52600860205260405f209060018060a01b03165f52602052602060ff60405f2054166040519015158152f35b346102fc5760203660031901126102fc57600435805f52600c60205261256560ff60405f205416612bfa565b5f52600b60205260405f20604051806020835491828152019081935f5260205f20905f5b8181106125e1575050508161259f9103826129f0565b604051918291602083019060208452518091526040830191905f5b8181106125c8575050500390f35b82518452859450602093840193909201916001016125ba565b8254845260209093019260019283019201612589565b346102fc5760203660031901126102fc57600435612613612fa0565b6126206005548210612bb6565b805f52600960205260ff60405f20541661263981612977565b6126cc57805f526006602052600360405f200154421061269b575f818152600960205260409020805460ff1690805460ff191660011790556040519061267e81612977565b8152604081600160205f5160206132945f395f51905f52940152a2005b60405162461bcd60e51b8152602060048201526009602482015268546f6f206561726c7960b81b6044820152606490fd5b60405162461bcd60e51b815260206004820152600f60248201526e105b1c9958591e481cdd185c9d1959608a1b6044820152606490fd5b346102fc575f3660031901126102fc5760206040516127108152f35b346102fc5760403660031901126102fc57612738612ad5565b6004355f52600860205260405f209060018060a01b03165f5260205260a060405f20805490600181015490600360028201549101549160ff604051948181161515865260081c1615156020850152604084015260608301526080820152f35b346102fc5760203660031901126102fc576004355f52600660205261280f60405f206127c281612a11565b906127cf60018201612a11565b60ff600283015416916003810154600482015460058301549161281d600760ff60068701541695015495604051998a996101008b526101008b0190612ab1565b9089820360208b0152612ab1565b9561282781612977565b60408801526060870152608086015260a0850152151560c084015260e08301520390f35b346102fc5760203660031901126102fc576004355f52600e602052602060018060a01b0360405f205416604051908152f35b346102fc5760203660031901126102fc5760043580156128d357335f5260036020528060405f20556040519081527f7a4bc391d21f6e1266001f2c5792e6d1eaf34a68d5540916835e975c17e27e9060203392a2005b63145a1fdd60e31b5f5260045ffd5b346102fc575f3660031901126102fc576020600554604051908152f35b346102fc5760203660031901126102fc576004355f526009602052602060ff60405f2054166040519061115d81612977565b346102fc575f3660031901126102fc57602060405160648152f35b346102fc5760203660031901126102fc576020906004355f526004825260ff60405f20541615158152f35b60041115611a8657565b90600182811c921680156129af575b602083101461299b57565b634e487b7160e01b5f52602260045260245ffd5b91607f1691612990565b60a081019081106001600160401b03821117610f0357604052565b61010081019081106001600160401b03821117610f0357604052565b90601f801991011681019081106001600160401b03821117610f0357604052565b9060405191825f825492612a2484612981565b8084529360018116908115612a8f5750600114612a4b575b50612a49925003836129f0565b565b90505f9291925260205f20905f915b818310612a73575050906020612a49928201015f612a3c565b6020919350806001915483858901015201910190918492612a5a565b905060209250612a4994915060ff191682840152151560051b8201015f612a3c565b805180835260209291819084018484015e5f828201840152601f01601f1916010190565b602435906001600160a01b03821682036102fc57565b600435906001600160a01b03821682036102fc57565b9181601f840112156102fc578235916001600160401b0383116102fc57602083818601950101116102fc57565b60409060031901126102fc576004359060243590565b8054821015612b5d575f5260205f209060021b01905f90565b634e487b7160e01b5f52603260045260245ffd5b9181601f840112156102fc578235916001600160401b0383116102fc576020808501948460051b0101116102fc57565b8054821015612b5d575f5260205f2001905f90565b15612bbd57565b60405162461bcd60e51b8152602060048201526015602482015274159bdd1a5b99c8191bd95cc81b9bdd08195e1a5cdd605a1b6044820152606490fd5b15612c0157565b60405162461bcd60e51b815260206004820152601560248201527414995cdd5b1d1cc81b9bdd08191958dc9e5c1d1959605a1b6044820152606490fd5b15612c4557565b60405162461bcd60e51b815260206004820152601560248201527413dd5d1cda5919481d9bdd1a5b99c81c195c9a5bd9605a1b6044820152606490fd5b15612c8957565b60405162461bcd60e51b815260206004820152600f60248201526e139bdd081dda1a5d195b1a5cdd1959608a1b6044820152606490fd5b15612cc757565b60405162461bcd60e51b815260206004820152600d60248201526c105b1c9958591e481d9bdd1959609a1b6044820152606490fd5b9291926001600160401b038211610f035760405191612d25601f8201601f1916602001846129f0565b8294818452818301116102fc578281602093845f960137010152565b5f198114611ae05760010190565b6001600160401b038111610f035760051b60200190565b818110612d71575050565b5f8155600101612d66565b15612d8357565b60405162461bcd60e51b81526020600482015260116024820152704d69736d6174636865642061727261797360781b6044820152606490fd5b9190811015612b5d5760051b0190565b356001600160a01b03811681036102fc5790565b805f52600660205260405f20604051612df8816129d4565b612e0182612a11565b8152612e0f60018301612a11565b602082015260ff600283015416612e2581612977565b604082015260038201549081606082015260e06007600485015494856080850152600581015460a085015260ff600682015416151560c085015201549101524210612ebe57421115612e9a575f526009602052600360ff60405f205416612e8b81612977565b14612e9557600290565b600390565b5f526009602052600360ff60405f205416612eb481612977565b14612e9557600190565b50505f90565b903590601e19813603018212156102fc57018035906001600160401b0382116102fc576020019181360383136102fc57565b9190601f8111612f0557505050565b612a49925f5260205f20906020601f840160051c83019310612f2f575b601f0160051c0190612d66565b9091508190612f22565b90821015612b5d57612f509160051b810190612ec4565b9091565b15612f5b57565b60405162461bcd60e51b8152602060048201526009602482015268139bdd081d9bdd195960ba1b6044820152606490fd5b8051821015612b5d5760209160051b010190565b5f546001600160a01b03163303612fb357565b63118cdaa760e01b5f523360045260245ffd5b60ff60025416612fd257565b63d93c066560e01b5f5260045ffd5b600260015414612ff2576002600155565b633ee5aeb560e01b5f5260045ffd5b6130509160209160018060a01b035f5160206132745f395f51905f525416905f60405180968195829463196d0b9b60e01b84526004840152336024840152608060448401526084830190612ab1565b6004606483015203925af19081156117ad575f916130db575b507f9e7b61f58c47dc699ac88507c4f5bb9f121c03808c5676a8078fe583e4649700546001600160a01b0316803b156102fc575f8091604460405180948193630f8e573b60e21b83528760048401523360248401525af180156117ad576130ce575090565b5f6130d8916129f0565b90565b90506020813d602011613105575b816130f6602093836129f0565b810103126102fc57515f613069565b3d91506130e9565b91908203918211611ae057565b5f5160206132745f395f51905f5254604051639cd07acb60e01b81525f600480830182905260248301529091602091839160449183916001600160a01b03165af19081156117ad575f9161316c575090565b90506020813d602011613193575b81613187602093836129f0565b810103126102fc575190565b3d915061317a565b602063ffffffff604460018060a01b035f5160206132745f395f51905f525416935f6040519586948593639cd07acb60e01b8552166004840152600460248401525af19081156117ad575f9161316c575090565b908115613263575b8015613251575b602090606460018060a01b035f5160206132745f395f51905f525416935f604051958694859363022f65e760e31b8552600485015260248401528160448401525af19081156117ad575f9161316c575090565b50602061325c61311a565b90506131fe565b905061326d61311a565b906131f756fe9e7b61f58c47dc699ac88507c4f5bb9f121c03808c5676a8078fe583e4649701be2b7b718e690d7be0faf0fe43b330f64dadd53b9daaa92771c788cb50c158fba26469706673582212204f275beacd1f0c246da2ba8a9906b33a4c5d3a04087053e84fcbe99d7688204864736f6c634300081c00339e7b61f58c47dc699ac88507c4f5bb9f121c03808c5676a8078fe583e46497039e7b61f58c47dc699ac88507c4f5bb9f121c03808c5676a8078fe583e46497019e7b61f58c47dc699ac88507c4f5bb9f121c03808c5676a8078fe583e46497029e7b61f58c47dc699ac88507c4f5bb9f121c03808c5676a8078fe583e4649700",
  "linkReferences": {},
  "deployedLinkReferences": {}
}