{
  "_format": "hh-sol-artifact-1",
  "contractName": "FHEBallot",
  "sourceName": "src/FHEBallot.sol",
  "abi": [
    {
      "inputs": [],
      "stateMutability": "nonpayable",
      "type": "constructor"
    },
    {
      "inputs": [],
      "name": "DecryptionNotAuthorized",
      "type": "error"
    },
    {
      "inputs": [],
      "name": "EnforcedPause",
      "type": "error"
    },
    {
      "inputs": [],
      "name": "ExpectedPause",
      "type": "error"
    },
    {
      "inputs": [
        {
          "internalType": "string",
          "name": "reason",
          "type": "string"
        }
      ],
      "name": "FHEOperationFailed",
      "type": "error"
    },
    {
      "inputs": [],
      "name": "InvalidEncryptedValue",
      "type": "error"
    },
    {
      "inputs": [],
      "name": "InvalidProof",
      "type": "error"
    },
    {
      "inputs": [],
      "name": "InvalidPublicKey",
      "type": "error"
    },
    {
      "inputs": [],
      "name": "InvalidTimeWindow",
      "type": "error"
    },
    {
      "inputs": [
        {
          "internalType": "address",
          "name": "owner",
          "type": "address"
        }
      ],
      "name": "OwnableInvalidOwner",
      "type": "error"
    },
    {
      "inputs": [
        {
          "internalType": "address",
          "name": "account",
          "type": "address"
        }
      ],
      "name": "OwnableUnauthorizedAccount",
      "type": "error"
    },
    {
      "inputs": [],
      "name": "ReentrancyGuardReentrantCall",
      "type": "error"
    },
    {
      "inputs": [],
      "name": "ZamaProtocolUnsupported",
      "type": "error"
    },
    {
      "anonymous": false,
      "inputs": [
        {
          "indexed": false,
          "internalType": "string",
          "name": "operation",
          "type": "string"
        },
        {
          "indexed": false,
          "internalType": "uint256",
          "name": "gasUsed",
          "type": "uint256"
        }
      ],
      "name": "FHEOperationExecuted",
      "type": "event"
    },
    {
      "anonymous": false,
      "inputs": [
        {
          "indexed": true,
          "internalType": "address",
          "name": "previousOwner",
          "type": "address"
        },
        {
          "indexed": true,
          "internalType": "address",
          "name": "newOwner",
          "type": "address"
        }
      ],
      "name": "OwnershipTransferred",
      "type": "event"
    },
    {
      "anonymous": false,
      "inputs": [
        {
          "indexed": false,
          "internalType": "address",
          "name": "account",
          "type": "address"
        }
      ],
      "name": "Paused",
      "type": "event"
    },
    {
      "anonymous": false,
      "inputs": [
        {
          "indexed": true,
          "internalType": "bytes32",
          "name": "proofHash",
          "type": "bytes32"
        },
        {
          "indexed": false,
          "internalType": "bool",
          "name": "valid",
          "type": "bool"
        }
      ],
      "name": "ProofVerified",
      "type": "event"
    },
    {
      "anonymous": false,
      "inputs": [
        {
          "indexed": true,
          "internalType": "address",
          "name": "user",
          "type": "address"
        },
        {
          "indexed": false,
          "internalType": "bytes32",
          "name": "publicKey",
          "type": "bytes32"
        }
      ],
      "name": "PublicKeyRegistered",
      "type": "event"
    },
    {
      "anonymous": false,
      "inputs": [
        {
          "indexed": true,
          "internalType": "uint256",
          "name": "votingId",
          "type": "uint256"
        },
        {
          "indexed": false,
          "internalType": "uint256",
          "name": "totalVotes",
          "type": "uint256"
        },
        {
          "indexed": false,
          "internalType": "uint256",
          "name": "quorum",
          "type": "uint256"
        }
      ],
      "name": "QuorumReached",
      "type": "event"
    },
    {
      "anonymous": false,
      "inputs": [
        {
          "indexed": true,
          "internalType": "uint256",
          "name": "votingId",
          "type": "uint256"
        },
        {
          "indexed": false,
          "internalType": "uint256[]",
          "name": "results",
          "type": "uint256[]"
        },
        {
          "indexed": false,
          "internalType": "uint256",
          "name": "totalVotes",
          "type": "uint256"
        }
      ],
      "name": "ResultsDecrypted",
      "type": "event"
    },
    {
      "anonymous": false,
      "inputs": [
        {
          "indexed": false,
          "internalType": "address",
          "name": "account",
          "type": "address"
        }
      ],
      "name": "Unpaused",
      "type": "event"
    },
    {
      "anonymous": false,
      "inputs": [
        {
          "indexed": true,
          "internalType": "uint256",
          "name": "votingId",
          "type": "uint256"
        },
        {
          "indexed": true,
          "internalType": "address",
          "name": "voter",
          "type": "address"
        },
        {
          "indexed": false,
          "internalType": "uint256",
          "name": "timestamp",
          "type": "uint256"
        }
      ],
      "name": "VoteCast",
      "type": "event"
    },
    {
      "anonymous": false,
      "inputs": [
        {
          "indexed": true,
          "internalType": "uint256",
          "name": "votingId",
          "type": "uint256"
        },
        {
          "indexed": true,
          "internalType": "address",
          "name": "voter",
          "type": "address"
        },
        {
          "indexed": false,
          "internalType": "uint256",
          "name": "votingPower",
          "type": "uint256"
        }
      ],
      "name": "VoterWhitelisted",
      "type": "event"
    },
    {
      "anonymous": false,
      "inputs": [
        {
          "indexed": true,
          "internalType": "uint256",
          "name": "votingId",
          "type": "uint256"
        },
        {
          "indexed": false,
          "internalType": "string",
          "name": "name",
          "type": "string"
        },
        {
          "indexed": false,
          "internalType": "enum IFHEVoting.VoteType",
          "name": "voteType",
          "type": "uint8"
        },
        {
          "indexed": false,
          "internalType": "uint256",
          "name": "startTime",
          "type": "uint256"
        },
        {
          "indexed": false,
          "internalType": "uint256",
          "name": "endTime",
          "type": "uint256"
        }
      ],
      "name": "VotingCreated",
      "type": "event"
    },
    {
      "anonymous": false,
      "inputs": [
        {
          "indexed": true,
          "internalType": "uint256",
          "name": "votingId",
          "type": "uint256"
        },
        {
          "indexed": false,
          "internalType": "enum IFHEVoting.VotingStatus",
          "name": "oldStatus",
          "type": "uint8"
        },
        {
          "indexed": false,
          "internalType": "enum IFHEVoting.VotingStatus",
          "name": "newStatus",
          "type": "uint8"
        }
      ],
      "name": "VotingStatusChanged",
      "type": "event"
    },
    {
      "inputs": [],
      "name": "MAX_OPTIONS",
      "outputs": [
        {
          "internalType": "uint256",
          "name": "",
          "type": "uint256"
        }
      ],
      "stateMutability": "view",
      "type": "function"
    },
    {
      "inputs": [],
      "name": "MAX_VOTERS",
      "outputs": [
        {
          "internalType": "uint256",
          "name": "",
          "type": "uint256"
        }
      ],
      "stateMutability": "view",
      "type": "function"
    },
    {
      "inputs": [],
      "name": "MAX_VOTING_DURATION",
      "outputs": [
        {
          "internalType": "uint256",
          "name": "",
          "type": "uint256"
        }
      ],
      "stateMutability": "view",
      "type": "function"
    },
    {
      "inputs": [],
      "name": "MIN_VOTING_DURATION",
      "outputs": [
        {
          "internalType": "uint256",
          "name": "",
          "type": "uint256"
        }
      ],
      "stateMutability": "view",
      "type": "function"
    },
    {
      "inputs": [
        {
          "internalType": "uint256[]",
          "name": "votingIds",
          "type": "uint256[]"
        }
      ],
      "name": "batchGetResults",
      "outputs": [
        {
          "internalType": "uint256[][]",
          "name": "allResults",
          "type": "uint256[][]"
        }
      ],
      "stateMutability": "view",
      "type": "function"
    },
    {
      "inputs": [
        {
          "internalType": "uint256[]",
          "name": "votingIds",
          "type": "uint256[]"
        }
      ],
      "name": "batchGetVotingOptions",
      "outputs": [
        {
          "internalType": "string[][]",
          "name": "allOptions",
          "type": "string[][]"
        }
      ],
      "stateMutability": "view",
      "type": "function"
    },
    {
      "inputs": [
        {
          "internalType": "uint256[]",
          "name": "votingIds",
          "type": "uint256[]"
        }
      ],
      "name": "batchGetVotingSummaries",
      "outputs": [
        {
          "components": [
            {
              "internalType": "uint256",
              "name": "id",
              "type": "uint256"
            },
            {
              "internalType": "string",
              "name": "name",
              "type": "string"
            },
            {
              "internalType": "string",
              "name": "description",
              "type": "string"
            },
            {
              "internalType": "uint8",
              "name": "voteType",
              "type": "uint8"
            },
            {
              "internalType": "uint256",
              "name": "startTime",
              "type": "uint256"
            },
            {
              "internalType": "uint256",
              "name": "endTime",
              "type": "uint256"
            },
            {
              "internalType": "uint8",
              "name": "status",
              "type": "uint8"
            },
            {
              "internalType": "uint256",
              "name": "totalVoters",
              "type": "uint256"
            },
            {
              "internalType": "uint256",
              "name": "numOptions",
              "type": "uint256"
            },
            {
              "internalType": "bool",
              "name": "resultsAvailable",
              "type": "bool"
            }
          ],
          "internalType": "struct FHEBallot.VotingSummary[]",
          "name": "summaries",
          "type": "tuple[]"
        }
      ],
      "stateMutability": "view",
      "type": "function"
    },
    {
      "inputs": [
        {
          "internalType": "uint256[]",
          "name": "votingIds",
          "type": "uint256[]"
        },
        {
          "internalType": "address",
          "name": "user",
          "type": "address"
        }
      ],
      "name": "batchHasVoted",
      "outputs": [
        {
          "internalType": "bool[]",
          "name": "hasVotedArray",
          "type": "bool[]"
        }
      ],
      "stateMutability": "view",
      "type": "function"
    },
    {
      "inputs": [
        {
          "internalType": "uint256",
          "name": "votingId",
          "type": "uint256"
        },
        {
          "internalType": "externalEuint32[]",
          "name": "encryptedVotes",
          "type": "bytes32[]"
        },
        {
          "internalType": "uint256[]",
          "name": "credits",
          "type": "uint256[]"
        },
        {
          "internalType": "bytes",
          "name": "proof",
          "type": "bytes"
        }
      ],
      "name": "castQuadraticVote",
      "outputs": [],
      "stateMutability": "nonpayable",
      "type": "function"
    },
    {
      "inputs": [
        {
          "internalType": "uint256",
          "name": "votingId",
          "type": "uint256"
        },
        {
          "internalType": "externalEuint32",
          "name": "encryptedVote",
          "type": "bytes32"
        },
        {
          "internalType": "bytes",
          "name": "proof",
          "type": "bytes"
        }
      ],
      "name": "castVote",
      "outputs": [],
      "stateMutability": "nonpayable",
      "type": "function"
    },
    {
      "inputs": [
        {
          "internalType": "uint256",
          "name": "votingId",
          "type": "uint256"
        },
        {
          "internalType": "externalEuint32",
          "name": "encryptedVote",
          "type": "bytes32"
        },
        {
          "internalType": "uint256",
          "name": "weight",
          "type": "uint256"
        },
        {
          "internalType": "bytes",
          "name": "proof",
          "type": "bytes"
        }
      ],
      "name": "castWeightedVote",
      "outputs": [],
      "stateMutability": "nonpayable",
      "type": "function"
    },
    {
      "inputs": [],
      "name": "confidentialProtocolId",
      "outputs": [
        {
          "internalType": "uint256",
          "name": "",
          "type": "uint256"
        }
      ],
      "stateMutability": "view",
      "type": "function"
    },
    {
      "inputs": [
        {
          "components": [
            {
              "internalType": "string",
              "name": "name",
              "type": "string"
            },
            {
              "internalType": "string",
              "name": "description",
              "type": "string"
            },
            {
              "internalType": "enum IFHEVoting.VoteType",
              "name": "voteType",
              "type": "uint8"
            },
            {
              "internalType": "uint256",
              "name": "startTime",
              "type": "uint256"
            },
            {
              "internalType": "uint256",
              "name": "endTime",
              "type": "uint256"
            },
            {
              "internalType": "uint256",
              "name": "quorum",
              "type": "uint256"
            },
            {
              "internalType": "bool",
              "name": "whitelistEnabled",
              "type": "bool"
            },
            {
              "internalType": "uint256",
              "name": "maxVotersCount",
              "type": "uint256"
            }
          ],
          "internalType": "struct IFHEVoting.VotingConfig",
          "name": "config",
          "type": "tuple"
        },
        {
          "internalType": "string[]",
          "name": "optionNames",
          "type": "string[]"
        },
        {
          "internalType": "string[]",
          "name": "optionDescriptions",
          "type": "string[]"
        }
      ],
      "name": "createVoting",
      "outputs": [
        {
          "internalType": "uint256",
          "name": "votingId",
          "type": "uint256"
        }
      ],
      "stateMutability": "nonpayable",
      "type": "function"
    },
    {
      "inputs": [
        {
          "internalType": "uint256",
          "name": "",
          "type": "uint256"
        },
        {
          "internalType": "uint256",
          "name": "",
          "type": "uint256"
        }
      ],
      "name": "decryptedResults",
      "outputs": [
        {
          "internalType": "uint256",
          "name": "",
          "type": "uint256"
        }
      ],
      "stateMutability": "view",
      "type": "function"
    },
    {
      "inputs": [
        {
          "internalType": "uint256",
          "name": "",
          "type": "uint256"
        }
      ],
      "name": "decryptionRequestId",
      "outputs": [
        {
          "internalType": "uint256",
          "name": "",
          "type": "uint256"
        }
      ],
      "stateMutability": "view",
      "type": "function"
    },
    {
      "inputs": [],
      "name": "emergencyPause",
      "outputs": [],
      "stateMutability": "nonpayable",
      "type": "function"
    },
    {
      "inputs": [],
      "name": "emergencyUnpause",
      "outputs": [],
      "stateMutability": "nonpayable",
      "type": "function"
    },
    {
      "inputs": [
        {
          "internalType": "uint256",
          "name": "",
          "type": "uint256"
        }
      ],
      "name": "encryptedTotalVotes",
      "outputs": [
        {
          "internalType": "euint32",
          "name": "",
          "type": "bytes32"
        }
      ],
      "stateMutability": "view",
      "type": "function"
    },
    {
      "inputs": [
        {
          "internalType": "uint256",
          "name": "votingId",
          "type": "uint256"
        }
      ],
      "name": "endVoting",
      "outputs": [],
      "stateMutability": "nonpayable",
      "type": "function"
    },
    {
      "inputs": [
        {
          "internalType": "address",
          "name": "user",
          "type": "address"
        }
      ],
      "name": "getAllUserVoteStatus",
      "outputs": [
        {
          "internalType": "bool[]",
          "name": "hasVotedArray",
          "type": "bool[]"
        }
      ],
      "stateMutability": "view",
      "type": "function"
    },
    {
      "inputs": [],
      "name": "getAllVotingSummaries",
      "outputs": [
        {
          "components": [
            {
              "internalType": "uint256",
              "name": "id",
              "type": "uint256"
            },
            {
              "internalType": "string",
              "name": "name",
              "type": "string"
            },
            {
              "internalType": "string",
              "name": "description",
              "type": "string"
            },
            {
              "internalType": "uint8",
              "name": "voteType",
              "type": "uint8"
            },
            {
              "internalType": "uint256",
              "name": "startTime",
              "type": "uint256"
            },
            {
              "internalType": "uint256",
              "name": "endTime",
              "type": "uint256"
            },
            {
              "internalType": "uint8",
              "name": "status",
              "type": "uint8"
            },
            {
              "internalType": "uint256",
              "name": "totalVoters",
              "type": "uint256"
            },
            {
              "internalType": "uint256",
              "name": "numOptions",
              "type": "uint256"
            },
            {
              "internalType": "bool",
              "name": "resultsAvailable",
              "type": "bool"
            }
          ],
          "internalType": "struct FHEBallot.VotingSummary[]",
          "name": "summaries",
          "type": "tuple[]"
        }
      ],
      "stateMutability": "view",
      "type": "function"
    },
    {
      "inputs": [],
      "name": "getAllVotingsFull",
      "outputs": [
        {
          "components": [
            {
              "internalType": "uint256",
              "name": "id",
              "type": "uint256"
            },
            {
              "internalType": "string",
              "name": "name",
              "type": "string"
            },
            {
              "internalType": "string",
              "name": "description",
              "type": "string"
            },
            {
              "internalType": "uint8",
              "name": "voteType",
              "type": "uint8"
            },
            {
              "internalType": "uint256",
              "name": "startTime",
              "type": "uint256"
            },
            {
              "internalType": "uint256",
              "name": "endTime",
              "type": "uint256"
            },
            {
              "internalType": "uint8",
              "name": "status",
              "type": "uint8"
            },
            {
              "internalType": "uint256",
              "name": "totalVoters",
              "type": "uint256"
            },
            {
              "internalType": "uint256",
              "name": "numOptions",
              "type": "uint256"
            },
            {
              "internalType": "bool",
              "name": "resultsAvailable",
              "type": "bool"
            }
          ],
          "internalType": "struct FHEBallot.VotingSummary[]",
          "name": "summaries",
          "type": "tuple[]"
        },
        {
          "internalType": "string[][]",
          "name": "allOptions",
          "type": "string[][]"
        }
      ],
      "stateMutability": "view",
      "type": "function"
    },
    {
      "inputs": [
        {
          "internalType": "uint256",
          "name": "votingId",
          "type": "uint256"
        }
      ],
      "name": "getDecryptedResults",
      "outputs": [
        {
          "internalType": "uint256[]",
          "name": "",
          "type": "uint256[]"
        }
      ],
      "stateMutability": "view",
      "type": "function"
    },
    {
      "inputs": [
        {
          "internalType": "uint256",
          "name": "votingId",
          "type": "uint256"
        }
      ],
      "name": "getTotalVoters",
      "outputs": [
        {
          "internalType": "uint256",
          "name": "",
          "type": "uint256"
        }
      ],
      "stateMutability": "view",
      "type": "function"
    },
    {
      "inputs": [
        {
          "internalType": "uint256",
          "name": "votingId",
          "type": "uint256"
        }
      ],
      "name": "getTotalVotes",
      "outputs": [
        {
          "internalType": "uint256",
          "name": "",
          "type": "uint256"
        }
      ],
      "stateMutability": "view",
      "type": "function"
    },
    {
      "inputs": [
        {
          "internalType": "uint256",
          "name": "votingId",
          "type": "uint256"
        },
        {
          "internalType": "address",
          "name": "voter",
          "type": "address"
        }
      ],
      "name": "getVoterInfo",
      "outputs": [
        {
          "components": [
            {
              "internalType": "bool",
              "name": "hasVoted",
              "type": "bool"
            },
            {
              "internalType": "bool",
              "name": "isWhitelisted",
              "type": "bool"
            },
            {
              "internalType": "uint256",
              "name": "votingPower",
              "type": "uint256"
            },
            {
              "internalType": "euint32",
              "name": "encryptedChoice",
              "type": "bytes32"
            },
            {
              "internalType": "uint256",
              "name": "voteTimestamp",
              "type": "uint256"
            }
          ],
          "internalType": "struct IFHEVoting.VoterInfo",
          "name": "",
          "type": "tuple"
        }
      ],
      "stateMutability": "view",
      "type": "function"
    },
    {
      "inputs": [
        {
          "internalType": "uint256",
          "name": "votingId",
          "type": "uint256"
        }
      ],
      "name": "getVotingConfig",
      "outputs": [
        {
          "components": [
            {
              "internalType": "string",
              "name": "name",
              "type": "string"
            },
            {
              "internalType": "string",
              "name": "description",
              "type": "string"
            },
            {
              "internalType": "enum IFHEVoting.VoteType",
              "name": "voteType",
              "type": "uint8"
            },
            {
              "internalType": "uint256",
              "name": "startTime",
              "type": "uint256"
            },
            {
              "internalType": "uint256",
              "name": "endTime",
              "type": "uint256"
            },
            {
              "internalType": "uint256",
              "name": "quorum",
              "type": "uint256"
            },
            {
              "internalType": "bool",
              "name": "whitelistEnabled",
              "type": "bool"
            },
            {
              "internalType": "uint256",
              "name": "maxVotersCount",
              "type": "uint256"
            }
          ],
          "internalType": "struct IFHEVoting.VotingConfig",
          "name": "",
          "type": "tuple"
        }
      ],
      "stateMutability": "view",
      "type": "function"
    },
    {
      "inputs": [
        {
          "internalType": "uint256",
          "name": "votingId",
          "type": "uint256"
        }
      ],
      "name": "getVotingFull",
      "outputs": [
        {
          "components": [
            {
              "internalType": "uint256",
              "name": "id",
              "type": "uint256"
            },
            {
              "internalType": "string",
              "name": "name",
              "type": "string"
            },
            {
              "internalType": "string",
              "name": "description",
              "type": "string"
            },
            {
              "internalType": "uint8",
              "name": "voteType",
              "type": "uint8"
            },
            {
              "internalType": "uint256",
              "name": "startTime",
              "type": "uint256"
            },
            {
              "internalType": "uint256",
              "name": "endTime",
              "type": "uint256"
            },
            {
              "internalType": "uint8",
              "name": "status",
              "type": "uint8"
            },
            {
              "internalType": "uint256",
              "name": "totalVoters",
              "type": "uint256"
            },
            {
              "internalType": "uint256",
              "name": "numOptions",
              "type": "uint256"
            },
            {
              "internalType": "bool",
              "name": "resultsAvailable",
              "type": "bool"
            }
          ],
          "internalType": "struct FHEBallot.VotingSummary",
          "name": "summary",
          "type": "tuple"
        },
        {
          "internalType": "string[]",
          "name": "options",
          "type": "string[]"
        }
      ],
      "stateMutability": "view",
      "type": "function"
    },
    {
      "inputs": [
        {
          "internalType": "uint256",
          "name": "votingId",
          "type": "uint256"
        }
      ],
      "name": "getVotingOptions",
      "outputs": [
        {
          "internalType": "string[]",
          "name": "",
          "type": "string[]"
        }
      ],
      "stateMutability": "view",
      "type": "function"
    },
    {
      "inputs": [
        {
          "internalType": "uint256",
          "name": "votingId",
          "type": "uint256"
        }
      ],
      "name": "getVotingStatus",
      "outputs": [
        {
          "internalType": "enum IFHEVoting.VotingStatus",
          "name": "",
          "type": "uint8"
        }
      ],
      "stateMutability": "view",
      "type": "function"
    },
    {
      "inputs": [
        {
          "internalType": "uint256",
          "name": "votingId",
          "type": "uint256"
        }
      ],
      "name": "getVotingSummary",
      "outputs": [
        {
          "components": [
            {
              "internalType": "uint256",
              "name": "id",
              "type": "uint256"
            },
            {
              "internalType": "string",
              "name": "name",
              "type": "string"
            },
            {
              "internalType": "string",
              "name": "description",
              "type": "string"
            },
            {
              "internalType": "uint8",
              "name": "voteType",
              "type": "uint8"
            },
            {
              "internalType": "uint256",
              "name": "startTime",
              "type": "uint256"
            },
            {
              "internalType": "uint256",
              "name": "endTime",
              "type": "uint256"
            },
            {
              "internalType": "uint8",
              "name": "status",
              "type": "uint8"
            },
            {
              "internalType": "uint256",
              "name": "totalVoters",
              "type": "uint256"
            },
            {
              "internalType": "uint256",
              "name": "numOptions",
              "type": "uint256"
            },
            {
              "internalType": "bool",
              "name": "resultsAvailable",
              "type": "bool"
            }
          ],
          "internalType": "struct FHEBallot.VotingSummary",
          "name": "summary",
          "type": "tuple"
        }
      ],
      "stateMutability": "view",
      "type": "function"
    },
    {
      "inputs": [
        {
          "internalType": "uint256",
          "name": "votingId",
          "type": "uint256"
        }
      ],
      "name": "getWinningOption",
      "outputs": [
        {
          "internalType": "uint256",
          "name": "",
          "type": "uint256"
        }
      ],
      "stateMutability": "view",
      "type": "function"
    },
    {
      "inputs": [
        {
          "internalType": "uint256",
          "name": "votingId",
          "type": "uint256"
        },
        {
          "internalType": "address",
          "name": "user",
          "type": "address"
        }
      ],
      "name": "hasVoted",
      "outputs": [
        {
          "internalType": "bool",
          "name": "",
          "type": "bool"
        }
      ],
      "stateMutability": "view",
      "type": "function"
    },
    {
      "inputs": [
        {
          "internalType": "uint256",
          "name": "votingId",
          "type": "uint256"
        }
      ],
      "name": "isQuorumReached",
      "outputs": [
        {
          "internalType": "bool",
          "name": "",
          "type": "bool"
        }
      ],
      "stateMutability": "view",
      "type": "function"
    },
    {
      "inputs": [],
      "name": "owner",
      "outputs": [
        {
          "internalType": "address",
          "name": "",
          "type": "address"
        }
      ],
      "stateMutability": "view",
      "type": "function"
    },
    {
      "inputs": [],
      "name": "paused",
      "outputs": [
        {
          "internalType": "bool",
          "name": "",
          "type": "bool"
        }
      ],
      "stateMutability": "view",
      "type": "function"
    },
    {
      "inputs": [
        {
          "internalType": "uint256",
          "name": "votingId",
          "type": "uint256"
        },
        {
          "internalType": "address",
          "name": "voter",
          "type": "address"
        },
        {
          "internalType": "bytes32",
          "name": "publicKey",
          "type": "bytes32"
        }
      ],
      "name": "reencryptVote",
      "outputs": [
        {
          "internalType": "bytes",
          "name": "",
          "type": "bytes"
        }
      ],
      "stateMutability": "view",
      "type": "function"
    },
    {
      "inputs": [
        {
          "internalType": "bytes32",
          "name": "publicKey",
          "type": "bytes32"
        }
      ],
      "name": "registerPublicKey",
      "outputs": [],
      "stateMutability": "nonpayable",
      "type": "function"
    },
    {
      "inputs": [],
      "name": "renounceOwnership",
      "outputs": [],
      "stateMutability": "nonpayable",
      "type": "function"
    },
    {
      "inputs": [
        {
          "internalType": "uint256",
          "name": "votingId",
          "type": "uint256"
        }
      ],
      "name": "requestDecryption",
      "outputs": [],
      "stateMutability": "nonpayable",
      "type": "function"
    },
    {
      "inputs": [
        {
          "internalType": "uint256",
          "name": "",
          "type": "uint256"
        }
      ],
      "name": "requestIdToVotingId",
      "outputs": [
        {
          "internalType": "uint256",
          "name": "",
          "type": "uint256"
        }
      ],
      "stateMutability": "view",
      "type": "function"
    },
    {
      "inputs": [
        {
          "internalType": "uint256",
          "name": "",
          "type": "uint256"
        }
      ],
      "name": "resultsDecrypted",
      "outputs": [
        {
          "internalType": "bool",
          "name": "",
          "type": "bool"
        }
      ],
      "stateMutability": "view",
      "type": "function"
    },
    {
      "inputs": [
        {
          "internalType": "uint256",
          "name": "votingId",
          "type": "uint256"
        }
      ],
      "name": "startVoting",
      "outputs": [],
      "stateMutability": "nonpayable",
      "type": "function"
    },
    {
      "inputs": [
        {
          "internalType": "uint256",
          "name": "",
          "type": "uint256"
        }
      ],
      "name": "totalVoters",
      "outputs": [
        {
          "internalType": "uint256",
          "name": "",
          "type": "uint256"
        }
      ],
      "stateMutability": "view",
      "type": "function"
    },
    {
      "inputs": [
        {
          "internalType": "address",
          "name": "newOwner",
          "type": "address"
        }
      ],
      "name": "transferOwnership",
      "outputs": [],
      "stateMutability": "nonpayable",
      "type": "function"
    },
    {
      "inputs": [
        {
          "internalType": "address",
          "name": "",
          "type": "address"
        }
      ],
      "name": "userPublicKeys",
      "outputs": [
        {
          "internalType": "bytes32",
          "name": "",
          "type": "bytes32"
        }
      ],
      "stateMutability": "view",
      "type": "function"
    },
    {
      "inputs": [
        {
          "internalType": "bytes32",
          "name": "",
          "type": "bytes32"
        }
      ],
      "name": "validProofs",
      "outputs": [
        {
          "internalType": "bool",
          "name": "",
          "type": "bool"
        }
      ],
      "stateMutability": "view",
      "type": "function"
    },
    {
      "inputs": [
        {
          "internalType": "uint256",
          "name": "votingId",
          "type": "uint256"
        },
        {
          "internalType": "address",
          "name": "voter",
          "type": "address"
        },
        {
          "internalType": "bytes",
          "name": "proof",
          "type": "bytes"
        }
      ],
      "name": "verifyVoteIntegrity",
      "outputs": [
        {
          "internalType": "bool",
          "name": "",
          "type": "bool"
        }
      ],
      "stateMutability": "view",
      "type": "function"
    },
    {
      "inputs": [
        {
          "internalType": "uint256",
          "name": "",
          "type": "uint256"
        },
        {
          "internalType": "address",
          "name": "",
          "type": "address"
        }
      ],
      "name": "voterInfo",
      "outputs": [
        {
          "internalType": "bool",
          "name": "hasVoted",
          "type": "bool"
        },
        {
          "internalType": "bool",
          "name": "isWhitelisted",
          "type": "bool"
        },
        {
          "internalType": "uint256",
          "name": "votingPower",
          "type": "uint256"
        },
        {
          "internalType": "euint32",
          "name": "encryptedChoice",
          "type": "bytes32"
        },
        {
          "internalType": "uint256",
          "name": "voteTimestamp",
          "type": "uint256"
        }
      ],
      "stateMutability": "view",
      "type": "function"
    },
    {
      "inputs": [
        {
          "internalType": "uint256",
          "name": "",
          "type": "uint256"
        }
      ],
      "name": "votingConfigs",
      "outputs": [
        {
          "internalType": "string",
          "name": "name",
          "type": "string"
        },
        {
          "internalType": "string",
          "name": "description",
          "type": "string"
        },
        {
          "internalType": "enum IFHEVoting.VoteType",
          "name": "voteType",
          "type": "uint8"
        },
        {
          "internalType": "uint256",
          "name": "startTime",
          "type": "uint256"
        },
        {
          "internalType": "uint256",
          "name": "endTime",
          "type": "uint256"
        },
        {
          "internalType": "uint256",
          "name": "quorum",
          "type": "uint256"
        },
        {
          "internalType": "bool",
          "name": "whitelistEnabled",
          "type": "bool"
        },
        {
          "internalType": "uint256",
          "name": "maxVotersCount",
          "type": "uint256"
        }
      ],
      "stateMutability": "view",
      "type": "function"
    },
    {
      "inputs": [],
      "name": "votingCounter",
      "outputs": [
        {
          "internalType": "uint256",
          "name": "",
          "type": "uint256"
        }
      ],
      "stateMutability": "view",
      "type": "function"
    },
    {
      "inputs": [
        {
          "internalType": "uint256",
          "name": "",
          "type": "uint256"
        }
      ],
      "name": "votingCreator",
      "outputs": [
        {
          "internalType": "address",
          "name": "",
          "type": "address"
        }
      ],
      "stateMutability": "view",
      "type": "function"
    },
    {
      "inputs": [
        {
          "internalType": "uint256",
          "name": "",
          "type": "uint256"
        },
        {
          "internalType": "uint256",
          "name": "",
          "type": "uint256"
        }
      ],
      "name": "votingOptions",
      "outputs": [
        {
          "internalType": "string",
          "name": "name",
          "type": "string"
        },
        {
          "internalType": "string",
          "name": "description",
          "type": "string"
        },
        {
          "internalType": "euint32",
          "name": "encryptedVoteCount",
          "type": "bytes32"
        },
        {
          "internalType": "bool",
          "name": "active",
          "type": "bool"
        }
      ],
      "stateMutability": "view",
      "type": "function"
    },
    {
      "inputs": [
        {
          "internalType": "uint256",
          "name": "",
          "type": "uint256"
        }
      ],
      "name": "votingStatus",
      "outputs": [
        {
          "internalType": "enum IFHEVoting.VotingStatus",
          "name": "",
          "type": "uint8"
        }
      ],
      "stateMutability": "view",
      "type": "function"
    },
    {
      "inputs": [
        {
          "internalType": "uint256",
          "name": "",
          "type": "uint256"
        },
        {
          "internalType": "address",
          "name": "",
          "type": "address"
        }
      ],
      "name": "whitelist",
      "outputs": [
        {
          "internalType": "bool",
          "name": "",
          "type": "bool"
        }
      ],
      "stateMutability": "view",
      "type": "function"
    },
    {
      "inputs": [
        {
          "internalType": "uint256",
          "name": "",
          "type": "uint256"
        }
      ],
      "name": "whitelistCount",
      "outputs": [
        {
          "internalType": "uint256",
          "name": "",
          "type": "uint256"
        }
      ],
      "stateMutability": "view",
      "type": "function"
    },
    {
      "inputs": [
        {
          "internalType": "uint256",
          "name": "votingId",
          "type": "uint256"
        },
        {
          "internalType": "address[]",
          "name": "voters",
          "type": "address[]"
        },
        {
          "internalType": "uint256[]",
          "name": "votingPowers",
          "type": "uint256[]"
        }
      ],
      "name": "whitelistVoters",
      "outputs": [],
      "stateMutability": "nonpayable",
      "type": "function"
    }
  ],
  "bytecode": "0x608060409080825234620002345733156200021f57505f8054336001600160a01b031980831682178455926001600160a01b03928316907f8be0079c531659141344cd1fd0a4f28419497f9722a3daafe3b4186f6b6457e09080a360018055620000686200026c565b50466001036200012d576200007c6200026c565b50826200008862000238565b5f81525f60208201525f828201525b828151167f9e7b61f58c47dc699ac88507c4f5bb9f121c03808c5676a8078fe583e46497009085825416179055826020820151167f9e7b61f58c47dc699ac88507c4f5bb9f121c03808c5676a8078fe583e464970190858254161790550151167f9e7b61f58c47dc699ac88507c4f5bb9f121c03808c5676a8078fe583e46497029182541617905551613f1a9081620002898239f35b4662aa36a7036200019e57620001426200026c565b50826200014e62000238565b73f0ffdc93b7e186bc2f8cb3daa75d86d1930a433d81527392c920834ec8941d2c77d188936e1f7a6f49c127602082015273be0e383937d564d7ff0bc3b46c51f0bf8d5c311a8282015262000097565b46617a69036200020e57620001b26200026c565b5082620001be62000238565b7350157cffd6bbfa2dece204a89ec419c23ef5755d815273e3a9105a3a932253a70f126eb1e3b589c643dd24602082015273be0e383937d564d7ff0bc3b46c51f0bf8d5c311a8282015262000097565b82516373cac13b60e01b8152600490fd5b631e4fbdf760e01b81525f6004820152602490fd5b5f80fd5b60405190606082016001600160401b038111838210176200025857604052565b634e487b7160e01b5f52604160045260245ffd5b6200027662000238565b905f82525f60208301525f604083015256fe60806040526004361015610011575f80fd5b5f3560e01c80630212414014612e91578063070a854014612e625780630da183d614612e475780630e13dd7414612e155780631780fe2014612df85780631a79004b14612d905780632114767914612d5e57806329046cc514612d2b5780632ce35e11146129d757806339774a3814612c7957806339b3e43c14612c015780633ceed69214612be55780633d2f5bda14612ae957806341d14c2214612a89578063420d237c14612a2557806343859632146129dc57806343d3a4c1146129d7578063498d91bf146129ad5780634a4e3bd5146129445780634b25bfce146128fb5780634cd1f470146128c357806351858e271461286a5780635c975abb14612848578063613e48ab1461235f57806361c6dadb14612335578063649f89a51461222c5780636aa8ba84146121a15780636b05f2ce14612177578063715018a6146121205780638249bd4c1461207d57806382e8919714611d065780638589c7a514611846578063889376b81461161b5780638927b030146115f95780638da5cb5b146115d25780638ded7c35146115285780638e58181b146114ad5780638f6339941461147e5780639079991f146114465780639096599014610cec57806396094ed614610be3578063a571b13214610b37578063a628687014610a98578063bfa8705714610a6e578063d0a17a3714610926578063d2be366514610899578063d33e327f146107ad578063dcc560b014610783578063e172b70014610746578063e2f631b514610717578063e3497ddc1461059a578063e4ee00a61461050d578063eaf1061c146104f1578063eefe85e4146104d3578063f2fde38b1461044e578063f41714ed146103605763fbc759a11461028c575f80fd5b3461035c57604036600319011261035c576102a56132b4565b5f60806040516102b48161319e565b82815282602082015282604082015282606082015201526004355f52600860205260405f209060018060a01b03165f5260205260a060405f206040516102f98161319e565b81549160ff831615159283835260ff602084019160081c1615158152600182015490604084019182526080600360028501549460608701958652015494019384526040519485525115156020850152516040840152516060830152516080820152f35b5f80fd5b3461035c57606036600319011261035c5760043561037c6132b4565b906001600160401b0360443581811161035c5761039d903690600401613313565b92805f526020946008865260405f2060018060a01b03821690815f5287526103cb60ff60405f205416613ac8565b825f526008875260405f20905f528652600360405f200154604051918783019384526001600160601b03199060601b16604083015260548201526054815260808101938185109085111761043a5761042b93604052519020923691613855565b82815191012014604051908152f35b634e487b7160e01b5f52604160045260245ffd5b3461035c57602036600319011261035c576104676132ca565b61046f613b00565b6001600160a01b039081169081156104bb575f54826001600160601b0360a01b8216175f55167f8be0079c531659141344cd1fd0a4f28419497f9722a3daafe3b4186f6b6457e05f80a3005b604051631e4fbdf760e01b81525f6004820152602490fd5b3461035c575f36600319011261035c5760206040516301e133808152f35b3461035c575f36600319011261035c576020604051610e108152f35b3461035c5760208060031936011261035c5760043590815f5260078060205260405f20549161053b8361352f565b935f5b84811061055f576040516020808252819061055b908201896133f0565b0390f35b600190825f5284845261057e6105788260405f20613356565b50613212565b6105888289613564565b526105938188613564565b500161053e565b3461035c5760208060031936011261035c576001600160401b0360043581811161035c576105cd83913690600401613383565b926105d784613461565b936105e560405195866131f1565b8085526105f181613461565b9261060385870194601f190185613513565b5f5b82811061066b5750505050604051918083019381845251809452604083019360408160051b85010192915f955b82871061063f5785850386f35b90919293828061065b600193603f198a820301865288516132e0565b9601920196019592919092610632565b6106798184849998996138da565b355f52600c875260ff60405f2054165f146106e0578061069c60019285856138da565b355f52600b88526106b96106c060405f206040519283809261375c565b03826131f1565b6106ca8289613564565b526106d58188613564565b505b01959495610605565b60405190878201918083108684111761043a576001926040525f81526107068289613564565b526107118188613564565b506106d7565b3461035c57602036600319011261035c576004355f52600c602052602060ff60405f2054166040519015158152f35b3461035c5761075436613340565b905f52600b60205260405f20805482101561035c576020916107759161344c565b90546040519160031b1c8152f35b3461035c57602036600319011261035c576004355f526012602052602060405f2054604051908152f35b3461035c57606036600319011261035c576004356107c96132b4565b815f526020916008835260405f209160018060a01b031691825f5283526107f660ff60405f205416613ac8565b815f526003835260443560405f20540361085f575f526008825260405f20905f528152600260405f200154604051908282015281815260408101918183106001600160401b0384111761043a57826040528252603f199061085a6060820182612f7d565b030190f35b60405162461bcd60e51b8152600481018490526012602482015271496e76616c6964207075626c6963206b657960701b6044820152606490fd5b3461035c57602036600319011261035c576004356001600160401b03811161035c576108c9903690600401613383565b906108d3826134c4565b915f5b8181106108f3576040516020808252819061055b90820187613042565b8061090a61090460019385876138da565b35613578565b6109148287613564565b5261091f8186613564565b50016108d6565b3461035c5760208060031936011261035c57610a28905f60e060405161094b816131b9565b606081526060848201528260408201528260608201528260808201528260a08201528260c082015201526004355f526006815260405f206040519161098f836131b9565b61099882613212565b83526109a660018301613212565b81840190815260ff6002840154169260408501936109c381613148565b845260038101546060860190815260048201546080870190815260058301549160a08801928352610a3b600760ff6006870154169560c08b01961515875201549560e08a019687526040519a8b9a898c5251610100809a8d01526101208c0190612f7d565b90518a8203601f190160408c0152612f7d565b9651610a4681613148565b60608901525160808801525160a08701525160c086015251151560e085015251908301520390f35b3461035c57602036600319011261035c576004355f526010602052602060405f2054604051908152f35b3461035c5760208060031936011261035c5760043590815f52600c602052610ac660ff60405f205416613718565b5f80925f5b815f52600b80855260405f208054831015610b2c5790610aec83869361344c565b929054600393841b1c11610b05575b5050600101610acb565b919550918093505f528352610b1d8460405f2061344c565b9054911b1c9083600186610afb565b602087604051908152f35b3461035c57608036600319011261035c576001600160401b0360243581811161035c57610b68903690600401613383565b505060443581811161035c57610b82903690600401613383565b505060643590811161035c57610b9c903690600401613313565b505060405162461bcd60e51b815260206004820152601f60248201527f55736520464845517561647261746963566f74696e6720636f6e7472616374006044820152606490fd5b3461035c5760208060031936011261035c576004356001600160401b03811161035c57610c14903690600401613383565b9091610c1f8261352f565b925f5b838110610c3f576040516020808252819061055b9082018861309e565b610c4a8185846138da565b355f52600780845260405f2054610c608161352f565b610c6a8489613564565b52610c758388613564565b505f5b818110610c8a57505050600101610c22565b936001879295610ca086839b9799969a856138da565b355f52888552610cdc81610cb78160405f20613356565b50610ccc610cc58c8b613564565b5191613212565b610cd68383613564565b52613564565b5001909491969295939750610c78565b3461035c5760031960603682011261035c576001600160401b036004351161035c57610100906004353603011261035c576024356001600160401b03811161035c57610d3c903690600401613383565b906044356001600160401b03811161035c57610d5c903690600401613383565b9091610d69828514613900565b6002841061140157606484116113c957608460043501356064600435013510156113b757610e10610da66064600435013560846004350135613ca9565b106113b7576301e13380610dc66064600435013560846004350135613ca9565b116113b7574260646004350135106113b75760055492610de58461389a565b6005555f848152600660205260409020610e03600480350180613a38565b906001600160401b03821161043a57610e2682610e208554613166565b85613a6a565b5f90601f831160011461135057610e5492915f91836112d8575b50508160011b915f199060031b1c19161790565b81555b610e6b602460043501600435600401613a38565b906001600160401b03821161043a57610e9482610e8b6001860154613166565b60018601613a6a565b5f90601f83116001146112e357610ec192915f91836112d85750508160011b915f199060031b1c19161790565b60018201555b6004604481350135101561035c57610ee460446004350135613148565b60ff1960028201541660ff604460043501351617600282015560646004350135600382015560846004350135600482015560a46004350135600582015560c46004350135151560c460043501350361035c57610f5560c46004350135600683019060ff801983541691151516179055565b600760e46004350135910155835f52600960205260405f2060ff198154169055600e60205260405f20336001600160601b0360a01b8254161790555f5b85811061104457602085610fa4613d69565b5f828152600d84526040902055807fcee2e27fb2b9fca63e047dd7a5f313beb4a7be959bc9c74a8025c8928baccbe960a0610fe3600480350180613a38565b91908260405193849260808452816080850152848401375f83828401015261101060446004350135613148565b6004356044810135838a015260648101356040840152608401356060830152601f01601f19168101030190a2604051908152f35b845f52600760205260405f2061105b828886613aad565b9190611068848887613aad565b9190611072613d69565b92604051958660808101106001600160401b0360808901111761043a576110ae936110a591608089016040523691613855565b86523691613855565b60208401526040830152600160608301528054600160401b81101561043a576110dc91600182018155613356565b9190916112c55780518051906001600160401b03821161043a5761110a826111048654613166565b86613a6a565b602090601f831160011461125d5761113892915f91836112525750508160011b915f199060031b1c19161790565b82555b60208101518051906001600160401b03821161043a5761116b826111626001870154613166565b60018701613a6a565b602090601f83116001146111dd576111cc936111a68460019897956003956060955f926111d25750508160011b915f199060031b1c19161790565b878501555b604081015160028501550151151591019060ff801983541691151516179055565b01610f92565b015190508f80610e40565b90600185015f5260205f20915f5b601f198516811061123a5750936001846003946060946111cc98849b9a98601f19811610611223575b505050811b01878501556111ab565b01515f1983881b60f8161c191690558e8080611214565b919260206001819286850151815501940192016111eb565b015190508b80610e40565b9190845f5260205f20905f935b601f19841685106112aa576001945083601f19811610611292575b505050811b01825561113b565b01515f1960f88460031b161c191690558a8080611285565b8181015183556020948501946001909301929091019061126a565b634e487b7160e01b5f525f60045260245ffd5b013590508980610e40565b600184939293015f5260205f20905f935b601f1984168510611338576001945083601f1981161061131f575b505050811b016001820155610ec7565b01355f19600384901b60f8161c1916905588808061130f565b818101358355602094850194600190930192016112f4565b835f9392935260205f20905f935b601f198416851061139f576001945083601f19811610611386575b505050811b018155610e57565b01355f19600384901b60f8161c19169055888080611379565b8181013583556020948501946001909301920161135e565b60405163b11cd48160e01b8152600490fd5b60405162461bcd60e51b815260206004820152601060248201526f546f6f206d616e79206f7074696f6e7360801b6044820152606490fd5b60405162461bcd60e51b815260206004820152601b60248201527f4174206c656173742032206f7074696f6e7320726571756972656400000000006044820152606490fd5b3461035c57602036600319011261035c576004355f52600a602052602060405f205460068252600560405f2001541115604051908152f35b3461035c57602036600319011261035c57602061149c600435613954565b604051906114a981613148565b8152f35b3461035c5760208060031936011261035c576114c76132ca565b600554906114d4826138a8565b926001600160a01b03909116905f5b8381106114f8576040518061055b87826133b3565b806001915f526008835260405f20845f52835260ff60405f20541661151d8288613564565b9015159052016114e3565b3461035c5760208060031936011261035c5760043590611546613478565b5061155082613578565b90825f5260078060205260405f2054916115698361352f565b945f5b84811061159d5761158f8661055b89604051938493604085526040850190612fbb565b9083820360208501526133f0565b600190825f528484526115b66105788260405f20613356565b6115c0828a613564565b526115cb8189613564565b500161156c565b3461035c575f36600319011261035c575f546040516001600160a01b039091168152602090f35b3461035c575f36600319011261035c576020611613613c7a565b604051908152f35b3461035c57606036600319011261035c576004356001600160401b0360243581811161035c5761164f903690600401613383565b9160443590811161035c57611668903690600401613383565b939091611673613b00565b61168060055483106136d4565b61168b858514613900565b815f5260206009815260ff8060405f2054166116a681613148565b611808575f5b8681106116b557005b600190855f52868686868b8d86600f9182855260405f20938a8060a01b0394856116e86116e386858c6138da565b613940565b165f5286528b60405f20541615611709575b505050505050505050016116ac565b6116e38382898b896117e9968f867f0d8ffcf4aedeb82895eb7d47049fb5257a4f61b0c6819d6d31163b45228d43ab9f8f928c916117ef9f946117a995895f52815260405f208861175e6116e3888b876138da565b165f52815260405f20976001988960ff19825416179055895f5261178f6116e38760089a8b865260405f20966138da565b165f525260405f2061010061ff00198254161790556138da565b35925f528c5260405f208b6117c26116e38888886138da565b165f528c5260405f2001558b5f5260108a5260405f206117e2815461389a565b90556138da565b976138da565b35946040519586521693a3868686868d80868f8f6116fa565b60405162461bcd60e51b8152600481018390526016602482015275159bdd1a5b99c8185b1c9958591e481cdd185c9d195960521b6044820152606490fd5b3461035c57606036600319011261035c576044600435602482356001600160401b03811161035c5761187c903690600401613313565b61188c60059392935485106136d4565b835f5261193361192b602094600686526118be60405f2060046003820154910154904210159081611cfb575b50613797565b865f526009865260ff938460405f2054166118d881613148565b15611cb6575b875f526006875284600660405f20015416611c95575b6118fc613b2b565b611904613b49565b875f526008875260405f20335f5287526119248560405f20541615613819565b3691613855565b602435613b6c565b90845f52600f845260405f20335f52845260405f20541690604051956119588761319e565b600196878152858101931515845260036040820194898652606083019585875260808401914283528a5f5260088a5260405f20335f528a526119ad60405f2095511515869060ff801983541691151516179055565b51151561ff0085549160081b169061ff001916178455518a84015560029551600284015551910155855f526007916007865260405f2054945f8215905b878110611ac9578a8a8a815f52600d8152611a1160405f2054611a0b613dbb565b90613cb6565b825f52600d825260405f2055600a815260405f20611a2f815461389a565b9055604051428152827f2acce567deca3aabf56327adbb4524bd5318936eaefa69e3a5208ffda0cfec09833393a3815f52600a815260405f205460068252600560405f2001541115611a8057828055005b604081600a7fb20da58627735347d6000915fe4c9d4e84ab94bd17ba266ba80162f4854790989352815f205490600681526005835f200154908351928352820152a28180828055005b80611ada63ffffffff849316613e09565b8592611c85575b8015611c77575b60018060a01b035f8c5f80516020613ea5833981519152958387541660405195869263f77f3f1d60e01b845260048401528a830152838c8301528160649485925af18015611c08578d935f91611c48575b50611b42613dbb565b92611b4b613d69565b96848315611c38575b15611c28575b8715611c13575b905f9154166040519788958694637702dcff60e01b865260048601528b8501528c8401525af18015611c08578c925f91611bd4575b50611bb7908c5f52888c5289611baf8460405f20613356565b500154613cb6565b8b5f52878b5288611bcb8360405f20613356565b500155016119ea565b8093508b8092503d8311611c01575b611bed81836131f1565b8101031261035c57611bb78c925190611b96565b503d611be3565b6040513d5f823e3d90fd5b96505f90611c1f613d69565b97909150611b61565b9350611c32613d69565b93611b5a565b9250611c42613e58565b92611b54565b84819592503d8311611c70575b611c5f81836131f1565b8101031261035c578c92515f611b39565b503d611c55565b50611c80613d69565b611ae8565b9150611c8f613d69565b91611ae1565b600f875260405f20335f528752611cb18560405f2054166137db565b6118f4565b875f5260098752875f80516020613ec58339815191526040805f2080549060018a83169260ff1916179055815190611ced81613148565b815260018b820152a26118de565b90504211158a6118b8565b3461035c5760208060031936011261035c5760043590611d2960055483106136d4565b815f5260068152600460405f200154421015611ff4575b815f5260098152600260ff60405f205416611d5a81613148565b148015611fd3575b15611f9c57815f52600c815260ff60405f205416611f64575f828152600e825260409020546001600160a01b03163303611f2b57815f526007815260405f205490611dac826138a8565b835f52600b90600b835260405f208151916001600160401b03831161043a57600160401b831161043a5784908254848455808510611f10575b5001905f52835f205f5b838110611efe57505050505f5b838110611ea657847f51de0405d9f7576ff254cf4434e45c3e7710b3a34f1c9d563e626b456a463d39611e9b85835f52600c8152835f80516020613ec58339815191526040805f2060ff199060018282541617905560098552815f20600381549260ff84169316179055815190611e7281613148565b8152600385820152a2835f52600b815260405f209060405192839260408452604084019061375c565b9042908301520390a2005b606490818102918183041481151715611eea57600191865f52838552611ecf8260405f2061344c565b819291549060031b91821b915f19901b191617905501611dfc565b634e487b7160e01b5f52601160045260245ffd5b82518282015591850191600101611def565b611f2590845f5285845f2091820191016138ea565b88611de5565b6064906040519062461bcd60e51b8252600482015260126024820152712737ba103b37ba34b7339031b932b0ba37b960711b6044820152fd5b6064906040519062461bcd60e51b825260048201526011602482015270105b1c9958591e48191958dc9e5c1d1959607a1b6044820152fd5b6064906040519062461bcd60e51b82526004820152601060248201526f159bdd1a5b99c81b9bdd08195b99195960821b6044820152fd5b50815f5260098152600360ff60405f205416611fee81613148565b14611d62565b60098152600160ff60405f20541661200b81613148565b14801561205e575b15611d4057815f5260098152815f80516020613ec58339815191526040805f20805490600260ff83169260ff191617905581519061205081613148565b8152600285820152a2611d40565b50815f526009815260ff60405f20541661207781613148565b15612013565b3461035c57604036600319011261035c576004356001600160401b03811161035c576120ad903690600401613383565b906120b66132b4565b6120bf836138a8565b926001600160a01b03909116905f5b8181106120e3576040518061055b87826133b3565b806120f160019284876138da565b355f5260206008815260405f2090855f525260ff60405f2054166121158288613564565b9015159052016120ce565b3461035c575f36600319011261035c57612138613b00565b5f80546001600160a01b0319811682556001600160a01b03167f8be0079c531659141344cd1fd0a4f28419497f9722a3daafe3b4186f6b6457e08280a3005b3461035c57602036600319011261035c576004355f52600d602052602060405f2054604051908152f35b3461035c576121af36613340565b905f52600760205260405f20805482101561035c5761220d916121d191613356565b506121db81613212565b906121e860018201613212565b61221b60ff600360028501549401541691604051958695608087526080870190612f7d565b908582036020870152612f7d565b916040840152151560608301520390f35b3461035c5760208060031936011261035c576004359061224a613b00565b61225760055483106136d4565b815f5260098152600160ff60405f20541661227181613148565b0361230457815f5260068152600460405f20015442106122cd5760405f80516020613ec583398151915291835f52600981526002825f20918254928260ff85169460ff19161790558351926122c581613148565b8352820152a2005b6064906040519062461bcd60e51b82526004820152601060248201526f151bdbc819585c9b1e481d1bc8195b9960821b6044820152fd5b6064906040519062461bcd60e51b82526004820152600a6024820152694e6f742061637469766560b01b6044820152fd5b3461035c57602036600319011261035c576004355f526011602052602060405f2054604051908152f35b3461035c57608036600319011261035c576044356064356001600160401b03811161035c57612392903690600401613313565b6123a1600554600435106136d4565b6004355f5260066020526123cc60405f206004600382015491015490421015908161283d5750613797565b6004355f52600960205260ff8060405f2054166123e881613148565b156127ef575b6004355f52600660205280600660405f200154166127cc575b61240f613b2b565b612417613b49565b6004355f5260066020526002818160405f2001541661243581613148565b036127915761245e906004355f52600860205260405f20335f5260205260405f20541615613819565b8215158061276c575b156127365761247b9161192b913691613855565b6004355f8181526008602090815260408083203384528252808320805460ff1916600117815560028101869055426003909101559282526007905290812054919291905b818110612542576124e8836004355f52600d602052611a0b63ffffffff60405f20549216613e09565b6004355f52600d60205260405f2055600a60205260405f2061250a815461389a565b905560405142815233907f2acce567deca3aabf56327adbb4524bd5318936eaefa69e3a5208ffda0cfec09602060043592a360018055005b61255163ffffffff8216613e09565b9084918515612726575b8015612714575b602090606460018060a01b035f80516020613ea58339815191525416945f604051968794859363f77f3f1d60e01b8552600485015260248401528160448401525af1918215611c08575f926126e0575b506125c263ffffffff8516613e09565b6125ca613d69565b928181156126d0575b156126c0575b83156126a7575b9060646020925f60018060a01b035f80516020613ea583398151915254166040519788958694637702dcff60e01b86526004860152602485015260448401525af1918215611c08575f92612671575b5061264f6001926004355f5260076020526002611baf8460405f20613356565b6004355f52600760205260026126688360405f20613356565b500155016124bf565b91506020823d60201161269f575b8161268c602093836131f1565b8101031261035c5790519061264f61262f565b3d915061267f565b925060209060646126b6613d69565b94919250506125e0565b90506126ca613d69565b906125d9565b90506126da613e58565b906125d3565b9091506020813d60201161270c575b816126fc602093836131f1565b8101031261035c575190856125b2565b3d91506126ef565b50602061271f613d69565b9050612562565b9150612730613d69565b9161255b565b60405162461bcd60e51b815260206004820152600e60248201526d125b9d985b1a59081dd95a59da1d60921b6044820152606490fd5b506004355f52600860205260405f20335f52602052600160405f200154831115612467565b60405162461bcd60e51b81526020600482015260136024820152724e6f7420776569676874656420766f74696e6760681b6044820152606490fd5b600f60205260405f20335f526020526127ea8160405f2054166137db565b612407565b6004355f52600960205260405f2080549060018383169260ff19161790556040519061281a81613148565b8152600160208201525f80516020613ec5833981519152604060043592a26123ee565b9050421115856118b8565b3461035c575f36600319011261035c57602060ff600254166040519015158152f35b3461035c575f36600319011261035c57612882613b00565b61288a613b2b565b600160ff1960025416176002557f62e78cea01bee320cd4e420270b5ea74000d11b0c9f74754ebdbfc544b05a2586020604051338152a1005b3461035c57602036600319011261035c576001600160a01b036128e46132ca565b165f526003602052602060405f2054604051908152f35b3461035c57604036600319011261035c576129146132b4565b6004355f52600f60205260405f209060018060a01b03165f52602052602060ff60405f2054166040519015158152f35b3461035c575f36600319011261035c5761295c613b00565b60025460ff81161561299b5760ff19166002557f5db9ee0a495bf2e6ff9c91a7834c1ba4fdd244a5e8aa4e537bd38aeae4b073aa6020604051338152a1005b604051638dfc202b60e01b8152600490fd5b3461035c57602036600319011261035c576004355f52600a602052602060405f2054604051908152f35b6129ad565b3461035c57604036600319011261035c576129f56132b4565b6004355f52600860205260405f209060018060a01b03165f52602052602060ff60405f2054166040519015158152f35b3461035c575f36600319011261035c57600554612a41816134c4565b905f5b818110612a61576040516020808252819061055b90820186613042565b80612a6d600192613578565b612a778286613564565b52612a828185613564565b5001612a44565b3461035c57602036600319011261035c57600435805f52600c602052612ab560ff60405f205416613718565b5f52600b60205261055b6106b9612ad560405f206040519283809261375c565b6040519182916020835260208301906132e0565b3461035c5760208060031936011261035c5760043590612b07613b00565b612b1460055483106136d4565b815f526009815260ff60405f205416612b2c81613148565b612baf57815f5260068152600360405f2001544210612b7f5760405f80516020613ec583398151915291835f52600981526001825f20918254928260ff85169460ff19161790558351926122c581613148565b6064906040519062461bcd60e51b825260048201526009602482015268546f6f206561726c7960b81b6044820152fd5b6064906040519062461bcd60e51b82526004820152600f60248201526e105b1c9958591e481cdd185c9d1959608a1b6044820152fd5b3461035c575f36600319011261035c5760206040516127108152f35b3461035c57604036600319011261035c57612c1a6132b4565b6004355f52600860205260405f209060018060a01b03165f5260205260a060405f20805490600181015490600360028201549101549160ff604051948181161515865260081c1615156020850152604084015260608301526080820152f35b3461035c57602036600319011261035c576004355f526006602052612cef60405f20612ca481613212565b90612cb160018201613212565b60ff6002830154169160038101546004820154600583015491612cfd600760ff60068701541695015495604051998a99610100808c528b0190612f7d565b9089820360208b0152612f7d565b95612d0781613148565b60408801526060870152608086015260a0850152151560c084015260e08301520390f35b3461035c57602036600319011261035c5761055b612d4a600435613578565b604051918291602083526020830190612fbb565b3461035c57602036600319011261035c576004355f52600e602052602060018060a01b0360405f205416604051908152f35b3461035c57602036600319011261035c576004358015612de657335f5260036020528060405f20556040519081527f7a4bc391d21f6e1266001f2c5792e6d1eaf34a68d5540916835e975c17e27e9060203392a2005b60405163145a1fdd60e31b8152600490fd5b3461035c575f36600319011261035c576020600554604051908152f35b3461035c57602036600319011261035c576004355f526009602052602060ff60405f205416604051906114a981613148565b3461035c575f36600319011261035c57602060405160648152f35b3461035c57602036600319011261035c576004355f526004602052602060ff60405f2054166040519015158152f35b3461035c575f36600319011261035c57600554612ead816134c4565b90612eb78161352f565b905f5b818110612eeb57612edd8461055b85604051938493604085526040850190613042565b90838203602085015261309e565b612ef481613578565b612efe8286613564565b52612f098185613564565b50805f526007602081815260405f205490612f238261352f565b612f2d8588613564565b52612f388487613564565b505f5b828110612f4e5750505050600101612eba565b600190855f52848352612f7681612f688160405f20613356565b50610ccc610cc58a8d613564565b5001612f3b565b91908251928382525f5b848110612fa7575050825f602080949584010152601f8019910116010190565b602081830181015184830182015201612f87565b90612fef612fdd61014084518452602085015190806020860152840190612f7d565b60408401518382036040850152612f7d565b9160ff60608201511660608301526080810151608083015260a081015160a083015260ff60c08201511660c083015260e081015160e0830152610100808201519083015261012080910151151591015290565b90808251908181526020809101926020808460051b8301019501935f915b8483106130705750505050505090565b909192939495848061308e600193601f198682030187528a51612fbb565b9801930193019194939290613060565b9080825190818152602080910160059082808560051b8701019601945f925b8584106130ce575050505050505090565b9091929394959685601f1980858403018652895192835180825283820191848083891b8301019601935f905b83821061311c57505050505050806001929901940194019295949391906130bd565b91939580613137898588600196989a9c03018a528a51612f7d565b9801960192018b95949293916130fa565b6004111561315257565b634e487b7160e01b5f52602160045260245ffd5b90600182811c92168015613194575b602083101461318057565b634e487b7160e01b5f52602260045260245ffd5b91607f1691613175565b60a081019081106001600160401b0382111761043a57604052565b61010081019081106001600160401b0382111761043a57604052565b61014081019081106001600160401b0382111761043a57604052565b90601f801991011681019081106001600160401b0382111761043a57604052565b9060405191825f825461322481613166565b908184526020946001916001811690815f146132925750600114613254575b505050613252925003836131f1565b565b5f90815285812095935091905b81831061327a57505061325293508201015f8080613243565b85548884018501529485019487945091830191613261565b9250505061325294925060ff191682840152151560051b8201015f8080613243565b602435906001600160a01b038216820361035c57565b600435906001600160a01b038216820361035c57565b9081518082526020808093019301915f5b8281106132ff575050505090565b8351855293810193928101926001016132f1565b9181601f8401121561035c578235916001600160401b03831161035c576020838186019501011161035c57565b604090600319011261035c576004359060243590565b805482101561336f575f5260205f209060021b01905f90565b634e487b7160e01b5f52603260045260245ffd5b9181601f8401121561035c578235916001600160401b03831161035c576020808501948460051b01011161035c57565b60209060206040818301928281528551809452019301915f5b8281106133da575050505090565b83511515855293810193928101926001016133cc565b90808251908181526020809101926020808460051b8301019501935f915b84831061341e5750505050505090565b909192939495848061343c600193601f198682030187528a51612f7d565b980193019301919493929061340e565b805482101561336f575f5260205f2001905f90565b6001600160401b03811161043a5760051b60200190565b60405190613485826131d5565b5f6101208382815260606020820152606060408201528260608201528260808201528260a08201528260c08201528260e0820152826101008201520152565b906134ce82613461565b6134db60405191826131f1565b82815280926134ec601f1991613461565b01905f5b8281106134fc57505050565b602090613507613478565b828285010152016134f0565b5f5b82811061352157505050565b606082820152602001613515565b9061325261353c83613461565b61354960405191826131f1565b8381526020819461355c601f1991613461565b019101613513565b805182101561336f5760209160051b010190565b613580613478565b50805f526020600681526040805f209080519161359c836131b9565b6135a581613212565b83526135b360018201613212565b9284810193845260ff918260028201541690848301916135d281613148565b825283600382015460608501908152600760048401549360808701948552600581015460a088015283600682015416151560c0880152015460e0860152895f5260098952600382885f20541661362781613148565b036136ac576003945b51975193519061363f82613148565b61364882613148565b519251938a5f52600a8a52875f20549760078b52805f205499600c8c5284825f2054169b82519d8e613679816131d5565b528d01528b0152166060890152608088015260a08701521660c085015260e0840152610100830152151561012082015290565b80514210156136bc575f94613630565b825142116136cc57600194613630565b600294613630565b156136db57565b60405162461bcd60e51b8152602060048201526015602482015274159bdd1a5b99c8191bd95cc81b9bdd08195e1a5cdd605a1b6044820152606490fd5b1561371f57565b60405162461bcd60e51b815260206004820152601560248201527414995cdd5b1d1cc81b9bdd08191958dc9e5c1d1959605a1b6044820152606490fd5b9081548082526020809201925f5260205f20915f905b828210613780575050505090565b835485529384019360019384019390910190613772565b1561379e57565b60405162461bcd60e51b815260206004820152601560248201527413dd5d1cda5919481d9bdd1a5b99c81c195c9a5bd9605a1b6044820152606490fd5b156137e257565b60405162461bcd60e51b815260206004820152600f60248201526e139bdd081dda1a5d195b1a5cdd1959608a1b6044820152606490fd5b1561382057565b60405162461bcd60e51b815260206004820152600d60248201526c105b1c9958591e481d9bdd1959609a1b6044820152606490fd5b9291926001600160401b03821161043a576040519161387e601f8201601f1916602001846131f1565b82948184528183011161035c578281602093845f960137010152565b5f198114611eea5760010190565b906138b282613461565b6138bf60405191826131f1565b82815280926138d0601f1991613461565b0190602036910137565b919081101561336f5760051b0190565b8181106138f5575050565b5f81556001016138ea565b1561390757565b60405162461bcd60e51b81526020600482015260116024820152704d69736d6174636865642061727261797360781b6044820152606490fd5b356001600160a01b038116810361035c5790565b805f52600660205260405f2060405161396c816131b9565b61397582613212565b815261398360018301613212565b602082015260ff60028301541661399981613148565b604082015260038201549081606082015260e06007600485015494856080850152600581015460a085015260ff600682015416151560c085015201549101524210613a3257421115613a0e575f526009602052600360ff60405f2054166139ff81613148565b14613a0957600290565b600390565b5f526009602052600360ff60405f205416613a2881613148565b14613a0957600190565b50505f90565b903590601e198136030182121561035c57018035906001600160401b03821161035c5760200191813603831361035c57565b9190601f8111613a7957505050565b613252925f5260205f20906020601f840160051c83019310613aa3575b601f0160051c01906138ea565b9091508190613a96565b9082101561336f57613ac49160051b810190613a38565b9091565b15613acf57565b60405162461bcd60e51b8152602060048201526009602482015268139bdd081d9bdd195960ba1b6044820152606490fd5b5f546001600160a01b03163303613b1357565b60405163118cdaa760e01b8152336004820152602490fd5b60ff60025416613b3757565b60405163d93c066560e01b8152600490fd5b600260015414613b5a576002600155565b604051633ee5aeb560e01b8152600490fd5b6020613bbc9260018060a01b0392835f80516020613ea58339815191525416905f60405180978195829463045fc19560e11b84526004840152336024840152608060448401526084830190612f7d565b6004606483015203925af1918215611c08575f92613c46575b507f9e7b61f58c47dc699ac88507c4f5bb9f121c03808c5676a8078fe583e46497005416803b1561035c575f8091604460405180948193630f8e573b60e21b83528760048401523360248401525af18015611c0857613c32575090565b6001600160401b03811161043a5760405290565b9091506020813d602011613c72575b81613c62602093836131f1565b8101031261035c5751905f613bd5565b3d9150613c55565b46600103613c8757600190565b4662aa36a703613c975761271190565b617a694614613ca4575f90565b5f1990565b91908203918211611eea57565b908115613d59575b8015613d47575b602090606460018060a01b035f80516020613ea58339815191525416935f604051958694859363022f65e760e31b8552600485015260248401528160448401525af1908115611c08575f91613d18575090565b90506020813d602011613d3f575b81613d33602093836131f1565b8101031261035c575190565b3d9150613d26565b506020613d52613d69565b9050613cc5565b9050613d63613d69565b90613cbe565b5f80516020613ea583398151915254604051639cd07acb60e01b81525f600480830182905260248301529091602091839160449183916001600160a01b03165af1908115611c08575f91613d18575090565b5f602060018060a01b035f80516020613ea58339815191525416604460405180948193639cd07acb60e01b835260016004840152600460248401525af1908115611c08575f91613d18575090565b60205f91604460018060a01b035f80516020613ea58339815191525416916040519485938492639cd07acb60e01b84526004840152600460248401525af1908115611c08575f91613d18575090565b5f602060018060a01b035f80516020613ea58339815191525416604460405180948193639cd07acb60e01b83528160048401528160248401525af1908115611c08575f91613d1857509056fe9e7b61f58c47dc699ac88507c4f5bb9f121c03808c5676a8078fe583e4649701be2b7b718e690d7be0faf0fe43b330f64dadd53b9daaa92771c788cb50c158fba2646970667358221220a035c1c665051dbb757587dda2a30ca6e54d8ae7b8a0ff8a1a02a2e7f6b56fd764736f6c63430008180033",
  "linkReferences": {},
  "deployedLinkReferences": {}
}